:100000000C945D000C94EC050C94EC050C94EC0540
:100010000C94EC050C94EC050C94EC050C94EC059C
:100020000C94EC050C94EC050C94EC050C94EC058C
:100030000C94EC050C94EC050C94EC050C94EC057C
:100040000C94EC050C94EC050C94EC050C94EC056C
:100050000C94EC050C94EC050C94EC050C94EC055C
:100060000C94EC050C94EC050C94EC050C94EC054C
:100070000C94EC050C94EC050C94EC050C94EC053C
:100080000C94EC050C94EC050C94EC050C94EC052C
:100090000C94EC050C94EC050C94EC050C94EC051C
:1000A0000C94EC050C94EC050C94EC050C94EC050C
:1000B0000C94EC0501000101800011241FBECFEF5C
:1000C000D8E0DEBFCDBFE4EBF0E040E017C0B59173
:1000D000A59135912591059107FD0CC095918591CC
:1000E000EF01F92FE82F05900D92A217B307D9F76A
:1000F000FE0104C01D92A217B307E1F7E93BF40724
:0E01000031F70E946E030C949205F894FFCF25
:0A010E004E4F2044657669636500DA
:100118004F925F926F927F928F929F92AF92BF920F
:10012800CF92DF92EF92FF920F931F93CF93DF93BB
:10013800CDB7DEB761970FB6F894DEBF0FBECDBF5F
:100148008C016B0182E00E943C05112334F48DE29E
:100158000E94290511950195110978010C2C02C0FE
:10016800F594E7940A94E2F7B801110F880B990BFC
:100178000E949E024B015C0161E070E00C2C02C001
:10018800660F771F0A94E2F7072E000C880B990B6D
:100198000E949E029B01AC01C501B4010E94DE05CC
:1001A8004B015C01B7010F2C000C880B990B0E94C6
:1001B8009E029B01AC01C501B4010E94AF054B0131
:1001C8005C01E114F10499F428C0C7016AE070E009
:1001D8000E94EE04E1E0F0E0EC0FFD1FE00FF11FDC
:1001E800805D8083E62EF72E0F5F1F4F02C000E070
:1001F80010E0E114F10449F7015011090BC0E1E0E6
:10020800F0E0EC0FFD1FE00FF11F80810E9429052F
:100218000150110911239CF703C080E30E942905AE
:100228008EE20E94290500E010E022C020E030E0C4
:1002380040E251E4C501B4010E94E2052B013C01F2
:100248000E94B6054B015C0180E3880D0E942905D8
:10025800B401990C880B990B0E949E029B01AC017A
:10026800C301B2010E94AF054B015C010F5F1F4F34
:100278000C151D05DCF28FED0E94290583E40E9410
:10028800290561960FB6F894DEBF0FBECDBFDF918A
:10029800CF911F910F91FF90EF90DF90CF90BF907B
:1002A800AF909F908F907F906F905F904F90089540
:1002B80010C00E94C40558F00E94BD0540F029F402
:1002C8005F3F29F00C94D80551110C94CC050C947F
:1002D800E9050E942D0468F39923B1F3552391F39E
:1002E800951B550BBB27AA2762177307840738F09D
:1002F8009F5F5F4F220F331F441FAA1FA9F335D0FA
:100308000E2E3AF0E0E832D091505040E695001CAD
:10031800CAF72BD0FE2F29D0660F771F881FBB1F67
:10032800261737074807AB07B0E809F0BB0B802D45
:10033800BF01FF2793585F4F3AF09E3F510578F071
:100348000C94D8050C94CC055F3FE4F3983ED4F3A5
:10035800869577956795B795F7959F5FC9F7880F45
:10036800911D9695879597F90895E1E0660F771F97
:10037800881FBB1F621773078407BA0720F0621B28
:0E038800730B840BBA0BEE1F88F7E0950895F7
:100396000FC00E94BD0538F00E94C40520F09523C9
:1003A60011F00C94D8050C94E90511240C94CC0595
:1003B6000E942D0470F3959FC1F3950F50E0551FD1
:1003C600629FF001729FBB27F00DB11D639FAA27A4
:1003D600F00DB11DAA1F649F6627B00DA11D661FF3
:1003E600829F2227B00DA11D621F739FB00DA11D14
:1003F600621F839FA00D611D221F749F3327A00DCE
:10040600611D231F849F600D211D822F762F6A2F69
:1004160011249F5750409AF0F1F088234AF0EE0FCE
:10042600FF1FBB1F661F771F881F91505040A9F7FB
:100436009E3F510580F00C94D8050C94CC055F3F87
:10044600E4F3983ED4F3869577956795B795F79537
:10045600E7959F5FC1F7FE2B880F911D96958795AF
:0404660097F9089565
:10046A0011C00E94BD0538F00E94C40520F039F47D
:10047A009F3F19F426F40C94E9050EF4E095E7FB86
:10048A000C94D805E92F0E942D0458F3BA17620775
:10049A0073078407950720F079F4A6F50C94CB0529
:1004AA000EF4E0950B2EBA2FA02D0B01B901900185
:1004BA000C01CA01A0011124FF27591B99F0593FC9
:1004CA0050F4503E68F11A16F040A22F232F342F11
:1004DA004427585FF3CF469537952795A795F0405F
:1004EA005395C9F77EF41F16BA0B620B730B840B74
:1004FA00BAF09150A1F0FF0FBB1F661F771F881F2C
:10050A00C2F70EC0BA0F621F731F841F48F4879583
:10051A0077956795B795F7959E3F08F0B0CF939575
:0E052A00880F08F09927EE0F97958795089592
:10053800E89409C097FB3EF4909580957095619575
:100548007F4F8F4F9F4F9923A9F0F92F96E9BB272B
:100558009395F695879577956795B795F111F8CFA7
:10056800FAF4BB0F11F460FF1BC06F5F7F4F8F4F12
:100578009F4F16C0882311F096E911C0772321F008
:100588009EE8872F762F05C0662371F096E8862FA0
:1005980070E060E02AF09A95660F771F881FDAF7F7
:0A05A800880F9695879597F908953E
:1005B200CF93DF932FEF83EC99E02150804090405E
:1005C200E1F700C00000C0E0D0E00DC060E382E0CF
:1005D2000E94DA040E946E0487EE93E00197F1F71D
:1005E20000C000002196C330D10584F360E282E0AE
:1005F2000E94DA040E946E0487EE93E00197F1F7FD
:1006020000C0000088E20E943C058CE00E943C058C
:100612000E94850586E00E943C05DF91CF910895F6
:100622000E94350488F09F5798F0B92F9927B75147
:10063200B0F0E1F0660F771F881F991F1AF0BA9584
:10064200C9F714C0B13091F00E94CB05B1E0089512
:100652000C94CB05672F782F8827B85F39F0B93F04
:10066200CCF3869577956795B395D9F73EF4909537
:0E0672008095709561957F4F8F4F9F4F089533
:10068000CF93DF930E94E403813001F58CEC0E944C
:100690004F0584E40E944F050E944F048130E1F72A
:1006A0000E94E4038130A9F48CEC0E944F058EEB8C
:1006B0000E944F050E94A704C82FD0E00E94A70403
:1006C00090E0982F88278C2B9D2B05C080E090E828
:0C06D00002C080E090E8DF91CF91089517
:1006DC000E94D20560E086E00E94DA040E94D902F2
:1006EC000E948505C0E00E944003811520E8920716
:1006FC0031F064E070E00E948C00C0E008C0C111D1
:10070C0006C06EE071E080E00E94C104C1E08FEF92
:10071C0090E722E0815090402040E1F700C00000BB
:02072C00E2CF1A
:10072E0094EA9093BC009091BC009923E4F79091C9
:10073E00B900987F983011F0903191F78093BB00FB
:10074E0094E89093BC009091BC009923E4F79091AB
:10075E00B900987F903211F0983541F494E9909356
:0E076E00BC009091BC0094FDFCCFDACF089542
:10077C0094EA9093BC009091BC009923E4F790917B
:10078C00B900987F983011F0903191F48093BB00B0
:10079C0084E88093BC008091BC008823E4F78091AE
:1007AC00B900887F883131F0803431F480E00895CD
:0C07BC0081E0089580E0089581E0089538
:1007C8008AB180618AB98BB18F7E8BB98FE797E048
:1007D8000197F1F700C000008AB18F7E8AB98BB10A
:1007E8008F7E8BB9EFE8F1E03197F1F700C0000098
:1007F80089B1EFEEF5E03197F1F700C0000082957E
:0A0808008F7091E089278170089538
:100812009AB190619AB99BB19F7E9BB99AE09A95E1
:10082200F1F700C080FF04C08BB180618BB903C0B7
:100832008BB18F7E8BB987EE90E00197F1F700C004
:1008420000008AB18F7E8AB98BB18F7E8BB995E019
:080852009A95F1F700000895EA
:10085A0057FD9058440F551F59F05F3F71F0479567
:10086A00880F97FB991F61F09F3F79F0879508954C
:10087A00121613061406551FF2CF4695F1DF08C06B
:10088A00161617061806991FF1CF86957105610588
:04089A000894089521
:10089E008AB180618AB98BB18F7E8BB98AE08A95D5
:1008AE00F1F700C08AB18F7E8AB98BB18F7E8BB97A
:1008BE00E5E3EA95F1F7000089B18071E3ECF0E031
:0E08CE003197F1F700C0000082958F700895F9
:1008DC00CF9387EC90E00197F1F700C0000080E027
:1008EC000E941605C82F682F686082E00E94DA0407
:1008FC0087EC90E00197F1F700C000006C2F677F48
:0A090C0082E00E94DA04CF91089502
:10091600CF93DF93C82F60910001D62FDF70682F29
:10092600607F6D2B82E00E94DA040E946E0480E1F3
:10093600C89FB00111246D2B82E00E94DA040E9448
:080946006E04DF91CF910895CA
:10094E001F93CF93DF93C0E0D0E010E00BC00E9466
:10095E004F0490E00C2E02C0880F991F0A94E2F704
:10096E00182B2196C830D10594F3812FDF91CF91AA
:04097E001F91089528
:10098200CF92DF92EF926B01E82E82E00E943C054B
:1009920006C00E9429058FEFC81AD80AE80AF60194
:1009A2008491E7FC80818111F4CFEF90DF90CF90AA
:0209B2000895A6
:1009B400CF93DF93D82FC62F80E40E9497038D2F07
:1009C4000E9462058C2F0E9462050E94A705C093B5
:0809D4000001DF91CF910895AD
:1009DC0097FB072E16F4009407D077FD09D00E94E0
:1009EC00020507FC05D03EF4909581959F4F089524
:0809FC00709561957F4F08958D
:100A0400AA1BBB1B51E107C0AA1FBB1FA617B70730
:100A140010F0A61BB70B881F991F5A95A9F780954C
:080A24009095BC01CD0108957D
:100A2C00CF93C82F80E40E9497038C2F0E946205FD
:100A3C0081E40E94E6050E949D05C82F0E94A7052F
:060A4C008C2FCF910895EC
:100A5200CF93C82F60910001646082E00E94DA04A3
:100A62008C2F0E948B048FEC97E00197F1F700C066
:060A72000000CF91089581
:100A7800CF93C82F609100016B7F82E00E94DA0457
:100A88008C2F0E948B048FEC97E00197F1F700C040
:060A98000000CF9108955B
:100A9E001F93CF93DF93182FC0E0D0E005C0812FB6
:100AAE000E94090421961695C830D105C4F3DF9132
:060ABE00CF911F91089585
:100AC4008093BB0084E88093BC008091BC008823A1
:100AD400E4F78091B900887F883211F081E00895AD
:040AE40080E0089511
:100AE800092E0394000C11F4882352F0BB0F40F434
:100AF800BF2B11F460FF04C06F5F7F4F8F4F9F4F74
:020B080008954E
:100B0A0081E00E943C052FEF83EC99E02150804060
:0A0B1A009040E1F700C000000895CC
:100B2400EC010E94F1050E94F005CE010E94F2053D
:060B3400CE010E94EE0557
:100B3A0084E88093BC008091BC008823E4F780910C
:040B4A00BB0008954F
:100B4E0084E98093BC008091BC0084FDFCCF0895A5
:0E0B5E005058BB27AA270E9435020C9474053C
:0E0B6C000E9411036894B1110C94CC050895F9
:0E0B7A0000240A941616170618060906089598
:0E0B880000240A94121613061406050608959A
:0E0B9600E894BB2766277727CB0197F90895CF
:0C0BA4001092B90088E48093B800089516
:0C0BB00097F99F6780E870E060E008950E
:080BBC000E945C010C94740519
:080BC4000E94CB010C947405A2
:060BCC000E94BE03089523
:060BD2009FEF80EC089586
:040BD8000C94000079
:040BDC000E948500EE
:020BE000089576
:020BE200089574
:020BE400089572
:00000001FF
