:020000020000FC
:0200000035C009
:1000540000C00F930FB70F9320917800309179006F
:100064000F910FBF0F91189508E00EBF0FEF0DBF52
:100074000FEF0AB904B901E400937C000FE8009380
:100084007A00789470E0739575B984E690E06ED048
:10009400FACF0F930FB70F938F939F9388279927C6
:1000A400BB2311F4AA301CF01A970196F9CF0A2E3B
:1000B400A82F1B2EB92F9F918F910F910FBF0F91D6
:1000C40008958F9399B19F70807F890F8BB95B9A44
:1000D400000000005B988F918295807F890F8BB917
:1000E4005B9A000000005B9808955A9AEADF8AEF51
:1000F40090E043D008955A98E4DF8AEF90E03DD031
:10010400089581E0F8DF85E090E030D0089588EC30
:1001140090E02CD080E38BB95B9A000000005B98E0
:100124008AEF90E02AD080E38BB95B9A000000004C
:100134005B988AEF90E021D080E38BB95B9A000052
:1001440000005B988AEF90E018D080E28BB95B9A4C
:10015400000000005B988AEF90E00FD088E2CBDFCC
:100164008CE0C9DFCEDF86E0C6DF089579EF7A95AB
:100174000000E9F70197D1F7089501970E94C400A0
:0C018400E1F7089500000000000008955D
:00000001FF
