:100000000C9463000C945B010C945B010C945B01F9
:100010000C945B010C9419010C945B010C945B0132
:100020000C945B010C945B010C945B010C945B01E0
:100030000C945B010C945B010C945B010C945B01D0
:100040000C945B010C945B010C945B010C945B01C0
:100050000C945B010C945B010C945B010C945B01B0
:100060000C945B010C945B010C945B010C945B01A0
:100070000C945B010C945B010C945B010C945B0190
:100080000C945B010C945B010C945B010C945B0180
:100090000C945B010C945B010C945B010C945B0170
:1000A0000C945B010C945B010C945B010C945B0160
:1000B0000C945B010100012680012601330002C47B
:1000C00001330134800011241FBECFEFD8E0DEBF22
:1000D000CDBFE4EBF0E040E017C0B591A5913591BC
:1000E0002591059107FD0CC095918591EF01F92FA0
:1000F000E82F05900D92A217B307D9F7FE0104C0AF
:100100001D92A217B307E1F7E53CF40731F70E940F
:0A0110008D000C945001F894FFCF0D
:10011A008FEF84B917B88FE18AB981E8809380009C
:10012A008CE08093810080E680936D0084E0809368
:10013A0068001092020186E08093040180912C01EC
:10014A008093250181E480937C0087E880937A007C
:10015A0078948091250180938800EAE7F0E0808115
:10016A008064808380917A0086FDFCCF409178007C
:10017A0050917900537020913301E22FF0E0EE0F95
:10018A00FF1FEB5FFE4F80819181BA01681B790BDB
:10019A008091000190910101860F971F90930101B0
:1001AA0080930001518340832F5F2F702093330186
:1001BA00959587959595879595958795959587951D
:1001CA00893C910518F4109203011AC0813921E083
:1001DA00920720F481E08093030112C0893522E05E
:1001EA00920720F482E0809303010AC0813293408F
:1001FA0020F483E08093030103C084E08093030129
:10020A0081E090E00090030102C0880F991F0A94D0
:10021A00E2F78BB98FEF91EE24E0815090402040B5
:08022A00E1F700C0000095CFD0
:100232001F920F920FB60F9211248F939F93EF93F9
:10024200FF9399B1909580910201809589239093B3
:10025200020186FF08C0909104019C3024F49F5F44
:100262009093040109C085FF07C08091040118160C
:100272001CF4815080930401E09104010E2E000CC5
:10028200FF0BEA5DFE4F808180932501FF91EF9184
:0E0292009F918F910F900FBE0F901F901895A7
:1002A000EC010E9460010E945F01CE010E94610189
:0602B000CE010E945D0179
:0402B6000C940000A4
:0402BA000E948B0013
:0202BE000895A1
:0202C00008959F
:0202C20008959D
:0D02C400051A2E42576B8094A8BDD1E6FAB2
:00000001FF
