:100000000C945E000C94F4030C94F4030C94F4032D
:100010000C94F4030C94F4030C94F4030C94F40384
:100020000C94F4030C94F4030C94F4030C946D03FB
:100030000C94F4030C94F4030C94F4030C94F40364
:100040000C94F4030C94F4030C94F4030C94F40354
:100050000C94F4030C94F4030C94F4030C94F40344
:100060000C94F4030C94F4030C94F4030C94F40334
:100070000C94F4030C94F4030C94F4030C94F40324
:100080000C94F4030C94F4030C94F4030C94F40314
:100090000C94F4030C94F4030C94F4030C94F40304
:1000A0000C94F4030C94F4030C94F4030C94F403F4
:1000B0000C94F403010001010001250011241FBE6E
:1000C000CFEFD8E0DEBFCDBFE4EBF0E040E017C0FB
:1000D000B591A59135912591059107FD0CC095919C
:1000E0008591EF01F92FE82F05900D92A217B30724
:1000F000D9F7FE0104C01D92A217B307E1F7EB3B4D
:10010000F40731F70E9493000C94AE03F894FFCFEC
:10011000434C454152000047415320444554454318
:050120005445440000FD
:0101250001D8
:10012600CF93DF93CDB7DEB72D970FB6F894DEBF2A
:100136000FBECDBF8FEF8AB984B90E941C022FEF84
:1001460031EE84E0215030408040E1F700C00000ED
:1001560082E480937C0087E880937A00E1E8F0E00F
:1001660080818D6080838AE196E0909389008093F8
:100176008800EFE6F0E0808182608083789400E07A
:1001860010E090E02FEF30E782E0215030408040D1
:10019600E1F700C000000734110508F015B82FEF8D
:1001A60030E782E0215030408040E1F700C0000097
:1001B60095B980910001882329F310920001EAE79E
:1001C600F0E080818064808380917A0086FDFCCF98
:1001D600609178007091790080E090E00E945F0263
:1001E60020E030E040EA50E40E94EA0320E030E0FC
:1001F60040E85AE30E94EA030E94CB028C010E9467
:10020600B9030734110588F481E085B920E131E0AE
:1002160040E086E0F901DE011196742F0E94890301
:10022600CE0101960E947C0331C027E131E040E017
:100236008DE0F901DE011196742F0E948903CE012B
:1002460001960E947C030536110518F481E085B9F4
:100256001DC0093C110518F482E085B917C00D329E
:1002660091E0190718F484E085B910C0013921E03E
:10027600120718F488E085B909C0053F31E0130775
:1002860018F480E185B902C080E285B995B17ACFCC
:100296000FC00E94CA0338F00E94D10320F09523B4
:1002A60011F00C94DF030C94F10311240C94D90380
:1002B6000E941D0370F3959FC1F3950F50E0551FE3
:1002C600629FF001729FBB27F00DB11D639FAA27A5
:1002D600F00DB11DAA1F649F6627B00DA11D661FF4
:1002E600829F2227B00DA11D621F739FB00DA11D15
:1002F600621F839FA00D611D221F749F3327A00DCF
:10030600611D231F849F600D211D822F762F6A2F6A
:1003160011249F5750409AF0F1F088234AF0EE0FCF
:10032600FF1FBB1F661F771F881F91505040A9F7FC
:100336009E3F510580F00C94DF030C94D9035F3F78
:10034600E4F3983ED4F3869577956795B795F79538
:10035600E7959F5FC1F7FE2B880F911D96958795B0
:0403660097F9089566
:10036A0011C00E94CA0338F00E94D10320F039F468
:10037A009F3F19F426F40C94F1030EF4E095E7FB81
:10038A000C94DF03E92F0E941D0358F3BA17620782
:10039A0073078407950720F079F4A6F50C94D8031F
:1003AA000EF4E0950B2EBA2FA02D0B01B901900186
:1003BA000C01CA01A0011124FF27591B99F0593FCA
:1003CA0050F4503E68F11A16F040A22F232F342F12
:1003DA004427585FF3CF469537952795A795F04060
:1003EA005395C9F77EF41F16BA0B620B730B840B75
:1003FA00BAF09150A1F0FF0FBB1F661F771F881F2D
:10040A00C2F70EC0BA0F621F731F841F48F4879584
:10041A0077956795B795F7959E3F08F0B0CF939576
:0E042A00880F08F09927EE0F97958795089593
:100438002FEF83EC99E0215080409040E1F700C015
:10044800000080E38BB99BB198609BB90000000065
:100458009BB1977F9BB9E7EEF3E03197F1F700C0C6
:1004680000008BB99BB198609BB9000000009BB15C
:10047800977F9BB9E7EEF3E03197F1F700C00000F2
:100488008BB98BB188608BB9000000008BB1877F76
:100498008BB987EE93E00197F1F700C0000088E27E
:1004A8000E94A2038CE00E94A2030E94B90386E086
:0604B8000E94A20308955A
:1004BE00E89409C097FB3EF49095809570956195F0
:1004CE007F4F8F4F9F4F9923A9F0F92F96E9BB27A6
:1004DE009395F695879577956795B795F111F8CF22
:1004EE00FAF4BB0F11F460FF1BC06F5F7F4F8F4F8D
:1004FE009F4F16C0882311F096E911C0772321F083
:10050E009EE8872F762F05C0662371F096E8862F1A
:10051E0070E060E02AF09A95660F771F881FDAF771
:0A052E00880F9695879597F90895B8
:100538000E94250388F09F5798F0B92F9927B75143
:10054800B0F0E1F0660F771F881F991F1AF0BA956F
:10055800C9F714C0B13091F00E94D803B1E00895F2
:100568000C94D803672F782F8827B85F39F0B93FE4
:10057800CCF3869577956795B395D9F73EF4909522
:0E0588008095709561957F4F8F4F9F4F08951E
:10059600CF92DF92EF92FF926B017C012DEC3CEC47
:1005A6004CEC5DE30E94E5031816BCF42DEC3CEC24
:1005B6004CEC5DE3C701B6010E94C3032CEE39E0A3
:1005C6004BE952E40E94EA030E949C02653F21E047
:1005D600720730F084EF91E004C080E090E001C043
:0C05E600CB01FF90EF90DF90CF900895C4
:1005F200990F0008550FAA0BE0E8FEEF1616170632
:10060200E807F907C0F012161306E407F50798F099
:10061200621B730B840B950B39F40A2661F0232BB2
:10062200242B252B21F408950A2609F4A140A6952E
:080632008FEF811D811D089569
:10063A0057FD9058440F551F59F05F3F71F0479589
:10064A00880F97FB991F61F09F3F79F0879508956E
:10065A00121613061406551FF2CF4695F1DF08C08D
:10066A00161617061806991FF1CF869571056105AA
:04067A000894089543
:10067E0029B12F70982F907F922B9BB99BB19860C8
:10068E009BB9000000009BB1977F9BB930E1839F1F
:10069E00C0011124822B8BB98BB188608BB90000FD
:0A06AE0000008BB1877F8BB908951F
:1006B800092E0394000C11F4882352F0BB0F40F468
:1006C800BF2B11F460FF04C06F5F7F4F8F4F9F4FA8
:0206D800089583
:1006DA001F920F920FB60F9211248F9381E080938D
:0E06EA0000018F910F900FBE0F901F9018957A
:1006F800CF93DF93EC0103C00E94EE03219688811B
:0A0708008111FACFDF91CF9108951F
:10071200992777FD05C005900D920197E1F708959D
:0A07220001900D920197E1F7089590
:10072C009BB194609BB90E943F0387EE93E00197C5
:08073C00F1F700C00000089570
:100744009BB19B7F9BB90E943F0387EE93E0019787
:08075400F1F700C00000089558
:10075C00EC010E94F9030E94F803CE010E94FA03F7
:06076C00CE010E94F6031D
:1007720081E00E94A2038FE19EE40197F1F700C09D
:0407820000000895D6
:0E0786005058BB27AA270E94B5010C945C03B3
:0E07940000240A941616170618060906089582
:0E07A20000240A941216130614060506089584
:0E07B000E894BB2766277727CB0197F90895B9
:0C07BE0097F99F6780E870E060E0089504
:0A07CA000E94F90208F481E008958E
:0807D4000E944B010C945C0330
:0607DC000E94960308953F
:0607E2009FEF80EC08957A
:0407E8000C9400006D
:0407EC000E948600E1
:0207F00008956A
:0207F200089568
:0207F400089566
:00000001FF
