:020000020000FC
:0200000068C0D6
:1000540000C05F935FB75F9320917800309179007F
:1000640004EF11E05527209FD001CC27DD27219FE5
:10007400B00DC11DD51F309FB00DC11DD51F319FBF
:10008400C00DD11D4AE08894D795C795B795A7951B
:100094004A95C9F7B5B943E030D0502D505D5F9310
:1000A4004A95D1F763D08F9155D08EE253D08F917A
:1000B40051D08F914FD084E690E08DD050917A004A
:1000C400506450937A005F915FBF5F91189558E038
:1000D4005EBF5FEF5DBF5FEF54B95AB94DD046D0F4
:1000E400789450E051E450937C005FEC50937A0094
:1000F400539584E690E06FD0FBCF5F935FB75F9337
:100104008F939F9388279927BB2321F4A7FD02C0CF
:10011400AA301CF01A970196F7CF0A2EA82FB92FF0
:100124009F918F915F915FBF5F9108958F9399B174
:100134009F70807F890F8BB95B9A000000005B98E9
:100144008F918295807F890F8BB95B9A00000000A4
:100154005B9808955A9AEADF8AEF90E048D00895B0
:100164005A98E4DF8AEF90E042D0089581E0F8DF06
:1001740085E090E030D0089588EC90E02CD080E3C6
:100184008BB95B9A000000005B988AEF90E02FD057
:1001940080E38BB95B9A000000005B988AEF90E0E3
:1001A40026D080E38BB95B9A000000005B988AEF4D
:1001B40090E01DD080E28BB95B9A000000005B9850
:1001C4008AEF90E014D088E2CBDF8CE0C9DFCEDF89
:1001D40086E0C6DF08958F939F9387EE93E007D060
:1001E4009F918F91000000000197A9F7089501974E
:1001F4000E94FE00E1F70895000000000000089549
:00000001FF
