:100000000C945A000C943E010C943E010C943E0159
:100010000C943E010C943E010C943E010C943E0164
:100020000C943E010C943E010C943E010C943E0154
:100030000C943E010C943E010C943E010C943E0144
:100040000C943E010C943E010C943E010C943E0134
:100050000C943E010C943E010C943E010C943E0124
:100060000C943E010C943E010C943E010C943E0114
:100070000C943E010C943E010C943E010C943E0104
:100080000C943E010C943E010C943E010C943E01F4
:100090000C943E010C943E010C943E010C943E01E4
:1000A0000C943E010C943E010C943E010C943E01D4
:1000B0000C943E0111241FBECFEFD8E0DEBFCDBFB0
:0C00C0000E9466000C941801F894FFCF19
:1000CC000E94350160E086E00E94060160EF87E047
:1000DC000E94060160E082E00E9406016EE083E06F
:1000EC000E94060181E00E94E10090E080959095CD
:1000FC00929582958F7089279F70892761E0009770
:10010C0009F460E070E004C0660F771F9695879540
:0C011C0080FFFACF82E00E940601E4CFD1
:1001280094EA9093BC009091BC009923E4F79091D5
:10013800B900987F983011F0903191F78093BB0007
:1001480094E89093BC009091BC009923E4F79091B7
:10015800B900987F903211F0983541F494E9909362
:0E016800BC009091BC0094FDFCCFDACF08954E
:1001760094EA9093BC009091BC009923E4F7909187
:10018600B900987F983011F0903191F48093BB00BC
:1001960084E88093BC008091BC008823E4F78091BA
:1001A600B900887F883131F0803431F480E00895D9
:0C01B60081E0089580E0089581E0089544
:1001C200CF93C82F80E40E9494008C2F0E94F400E9
:1001D20081E40E943B010E942301C82F0E942D014D
:0601E2008C2FCF9108955F
:1001E8008093BB0084E88093BC008091BC00882386
:1001F800E4F78091B900887F883211F081E0089592
:0402080080E00895F5
:10020C00CF93DF93D82FC62F80E40E9494008D2FBC
:10021C000E94F4008C2F0E94F4000E942D01DF91AB
:04022C00CF910895D1
:10023000EC010E9443010E944201CE010E94440150
:06024000CE010E94400106
:1002460084E88093BC008091BC008823E4F7809109
:04025600BB0008954C
:10025A0084E98093BC008091BC0084FDFCCF0895A2
:0C026A001092B90088E48093B800089559
:060276000E94BB00089588
:04027C000C940000DE
:040280000E94640074
:020284000895DB
:020286000895D9
:020288000895D7
:00000001FF
