:100000000C945A000C9416010C9416010C941601D1
:100010000C9416010C9416010C9416010C94160104
:100020000C9416010C9416010C9416010C941601F4
:100030000C9416010C9416010C9416010C941601E4
:100040000C9416010C9416010C9416010C941601D4
:100050000C9416010C9416010C9416010C941601C4
:100060000C9416010C9416010C9416010C941601B4
:100070000C9416010C9416010C9416010C941601A4
:100080000C9416010C9416010C9416010C94160194
:100090000C9416010C9416010C9416010C94160184
:1000A0000C9416010C9416010C9416010C94160174
:1000B0000C94160111241FBECFEFD8E0DEBFCDBFD8
:0C00C0000E9466000C94FD00F894FFCF35
:1000CC000E94100160E086E00E94EB0014B883B13E
:1000DC008095282F227030E0E82FE470F0E0482F54
:1000EC00487050E0982F9170C92F90E0D92F80FD67
:1000FC0005C02115310511F0309741F4211531055A
:10010C0039F44115510531F090E005C090E003C081
:10011C0091E001C091E0892F8170CD2B29F421153C
:10012C00310511F4EF2B39F0232B41F0452B49F01D
:10013C0060E070E008C060E070E005C060E070E076
:10014C0002C061E070E061707727660F771F682B43
:08015C0082E00E94EB00BBCF22
:1001640094EA9093BC009091BC009923E4F7909199
:10017400B900987F983011F0903191F78093BB00CB
:1001840094E89093BC009091BC009923E4F790917B
:10019400B900987F903211F0983541F494E9909326
:0E01A400BC009091BC0094FDFCCFDACF089512
:1001B2008093BB0084E88093BC008091BC008823BC
:1001C200E4F78091B900887F883211F081E00895C8
:0401D20080E008952C
:1001D600CF93DF93D82FC62F80E40E94B2008D2FD5
:1001E6000E94D9008C2F0E94D9000E940801DF913D
:0401F600CF91089508
:1001FA00EC010E941B010E941A01CE010E941C01FF
:06020A00CE010E94180164
:1002100084E98093BC008091BC0084FDFCCF0895EC
:0C0220001092B90088E48093B8000895A3
:04022C000C9400002E
:040230000E946400C4
:0202340008952B
:02023600089529
:02023800089527
:00000001FF
