:100000000C945D000C94CD020C94CD020C94CD02A6
:100010000C94CD020C94CD020C94CD020C94CD0224
:100020000C94CD020C94CD020C94CD020C94CD0214
:100030000C94CD020C94CD020C94CD020C94CD0204
:100040000C94CD020C94CD020C94CD020C94CD02F4
:100050000C94CD020C94CD020C94CD020C94CD02E4
:100060000C94CD020C94CD020C94CD020C94CD02D4
:100070000C94CD020C94CD020C94CD020C94CD02C4
:100080000C94CD020C94CD020C94CD020C94CD02B4
:100090000C94CD020C94CD020C94CD020C94CD02A4
:1000A0000C94CD020C94CD020C94CD020C94CD0294
:1000B0000C94CD0201000104800011241FBECFEF7B
:1000C000D8E0DEBFCDBFE4EBF0E040E017C0B59173
:1000D000A59135912591059107FD0CC095918591CC
:1000E000EF01F92FE82F05900D92A217B307D9F76A
:1000F000FE0104C01D92A217B307E1F7E93BF40724
:0E01000031F70E9404020C94A302F894FFCF82
:10010E000E94AD0180FD20C081FD20C082FD20C077
:10011E0083FD20C084FD20C085FD20C086FD20C04B
:10012E0087FD20C090FD20C091FD20C092FD20C013
:10013E0093FD20C094FD20C095FD20C096FD20C0EB
:10014E00992304F581E408958AE2089580E30895E1
:10015E0083E2089584E4089587E3089588E308957B
:10016E0089E3089583E4089584E3089585E308956B
:10017E0086E3089582E4089581E3089582E3089565
:08018E0083E3089580E0089569
:10019600CF93DF932FEF83EC99E02150804090407E
:1001A600E1F700C00000C0E0D0E00DC060E382E0EF
:1001B6000E9437020E94CB0187EE93E00197F1F788
:1001C60000C000002196C330D10584F360E282E0CE
:1001D6000E9437020E94CB0187EE93E00197F1F768
:1001E60000C0000088E20E9471028CE00E94710249
:1001F6000E94960286E00E947102DF91CF910895D7
:10020600EF92FF920F931F93CF93DF9380E00E94AC
:100216001E02E82EF12C81E00E941E02082F10E03B
:1002260082E00E941E02C82FD0E083E00E941E02D8
:10023600282F30E002951295107F1027007F102797
:100246000E291F299C2F8827802B912B322F22279E
:100256003295307F822B932BDF91CF911F910F9197
:06026600FF90EF900895E7
:10026C00CF930E948700C82F882311F1809103013E
:10027C00C817F1F0C09303010E94960280ED8C0F19
:10028C008A3018F40E94C60213C08FEB8C0F843096
:10029C0020F48C2F0E945E020BC0CA3221F48AE239
:1002AC000E945E0205C0C33219F483E20E945E0212
:0402BC00CF91089541
:1002C00094EA9093BC009091BC009923E4F790913C
:1002D000B900987F983011F0903191F78093BB006E
:1002E00094E89093BC009091BC009923E4F790911E
:1002F000B900987F903211F0983541F494E99093C9
:0E030000BC009091BC0094FDFCCFDACF0895B4
:10030E0094EA9093BC009091BC009923E4F79091ED
:10031E00B900987F983011F0903191F48093BB0022
:10032E0084E88093BC008091BC008823E4F7809120
:10033E00B900887F883131F0803431F480E008953F
:0C034E0081E0089580E0089581E00895AA
:10035A00CF93DF930E940301EC018FE59AEE019798
:10036A00F1F700C000000E9403018C239D23209115
:10037A0001013091020120953095909302018093FA
:0C038A00010182239323DF91CF9108959D
:10039600CF9387EC90E00197F1F700C0000080E072
:1003A6000E944B02C82F682F686082E00E943702C5
:1003B60087EC90E00197F1F700C000006C2F677F93
:0A03C60082E00E943702CF910895F3
:1003D000CF93DF93C82F60910001D62FDF70682F75
:1003E000607F6D2B82E00E9437020E94CB0180E18A
:1003F000C89FB00111246D2B82E00E9437020E9439
:08040000CB01DF91CF910895BB
:100408008FEF84B90E94C00260E086E00E94370244
:1004180060EF87E00E9437020E94CB002FEF80E751
:1004280092E0215080409040E1F700C000000E9417
:040438003601F4CFC6
:10043C0061E070E002C0660F771F8A95E2F7609565
:10044C006F7083E00E9437028FE891E00197F1F71B
:10045C0000C0000081E00E944B02809582958F7055
:02046C000895F1
:10046E00CF93DF93D82FC62F80E40E9460018D2F8B
:10047E000E9484028C2F0E9484020E94B802C093B4
:08048E000001DF91CF910895F8
:10049600CF93C82F80E40E9460018C2F0E948402B3
:1004A60081E40E94CA020E94AE02C82F0E94B802CE
:0604B6008C2FCF91089588
:1004BC00CF93C82F60910001646082E00E943702E4
:1004CC008C2F0E94E8018FEC97E00197F1F700C0A8
:0604DC000000CF9108951D
:1004E200CF93C82F609100016B7F82E00E94370298
:1004F2008C2F0E94E8018FEC97E00197F1F700C082
:060502000000CF910895F6
:100508008093BB0084E88093BC008091BC00882362
:10051800E4F78091B900887F883211F081E008956E
:0405280080E00895D2
:10052C0081E00E9471022FEF83EC99E02150804012
:0A053C009040E1F700C000000895B0
:10054600EC010E94D2020E94D102CE010E94D30287
:06055600CE010E94CF025D
:10055C0084E88093BC008091BC008823E4F78091F0
:04056C00BB00089533
:1005700084E98093BC008091BC0084FDFCCF089589
:0C0580001092B90088E48093B800089540
:08058C00805D0E945E020895EB
:060594000E94870108959A
:04059A000C940000BD
:04059E000E94850032
:0205A2000895BA
:0205A4000895B8
:0205A6000895B6
:00000001FF
