:020000020000FC
:0200000032C00C
:100014000DC005001A002E00420057006B0080003E
:100024009400A800BD00D100E600FA000F930FB7BA
:100034000F9359B15095042F00950523452F03FDC7
:1000440003C004FD06C009C03C3039F03395329634
:1000540004C0303011F03A9532970F910FBF0F91D1
:10006400189508E00EBF0FEF0DBF0FEF04B900277E
:100074000AB901E8009380000CE00093810008E1D4
:1000840000936D0004E00093680040E036E0F0E087
:10009400E2E2789414911093880080EA90E001D011
:1000A400F9CF79EF7A950000E9F70197D1F7089530
:00000001FF
