:100000000C945A000C94C5000C94C5000C94C500C7
:100010000C94C5000C94C5000C94C5000C94C5004C
:100020000C94C5000C94C5000C94C5000C94C5003C
:100030000C94C5000C94C5000C94C5000C94C5002C
:100040000C94C5000C94C5000C94C5000C94C5001C
:100050000C94C5000C94C5000C94C5000C94C5000C
:100060000C94C5000C94C5000C94C5000C94C500FC
:100070000C94C5000C94C5000C94C5000C94C500EC
:100080000C94C5000C94C5000C94C5000C94C500DC
:100090000C94C5000C94C5000C94C5000C94C500CC
:1000A0000C94C5000C94C5000C94C5000C94C500BC
:1000B0000C94C50011241FBECFEFD8E0DEBFCDBF2A
:1000C000E4EBF0E040E017C0B591A59135912591A2
:1000D000059107FD0CC095918591EF01F92FE82F4F
:1000E00005900D92A217B307D9F7FE0104C01D9227
:1000F000A217B307E1F7E43BF40731F70E9484004D
:080100000C94AC00F894FFCF51
:1001080087E690E00E949F002FEF33ED80E32150B7
:1001180030408040E1F700C000000E94BE009FEF21
:1001280023ED30E3915020403040E1F700C000005B
:060138000E94B700E9CFB0
:10013E001092C00028E12093C1009093C5008093D7
:0A014E00C40086E08093C20008950B
:10015800EC010E94CA000E94C900CE010E94CB0097
:06016800CE010E94C70059
:0E016E009091C00095FFFCCF8093C6000895CD
:0E017C008091C0008823E4F78091C6000895AA
:04018A000C940000D1
:04018E000E94820049
:020192000895CE
:020194000895CC
:020196000895CA
:00000001FF
