:100000000C945D000C94EA000C94C5000C94EA007A
:100010000C94EA000C94EA000C94EA000C94EA00B8
:100020000C94EA000C94EA000C94EA000C94EA00A8
:100030000C94EA000C94EA000C94EA000C94EA0098
:100040000C94EA000C94EA000C94EA000C94EA0088
:100050000C94EA000C94EA000C94EA000C94EA0078
:100060000C94EA000C94EA000C94EA000C94EA0068
:100070000C94EA000C94EA000C94EA000C94EA0058
:100080000C94EA000C94EA000C94EA000C94EA0048
:100090000C94EA000C94EA000C94EA000C94EA0038
:1000A0000C94EA000C94EA000C94EA000C94EA0028
:1000B0000C94EA0001000104800011241FBECFEF60
:1000C000D8E0DEBFCDBFE4EBF0E040E017C0B59173
:1000D000A59135912591059107FD0CC095918591CC
:1000E000EF01F92FE82F05900D92A217B307D9F76A
:1000F000FE0104C01D92A217B307E1F7E93BF40724
:0E01000031F70E9487000C94DF00F894FFCFC7
:10010E008CE08093690082E08DBB78948FEF84B988
:10011E001AB814C08091020190910301009721F04A
:10012E00019721F481E003C080E001C08FEF85B913
:10013E008FE99FE00197F1F700C000008091000168
:10014E00909101019C0121503109309301012093BE
:10015E000001892BF9F6809102019091030101971C
:10016E0012F480E090E0909303018093020184E901
:0C017E0091E19093010180930001E0CF1B
:10018A001F920F920FB60F9211248F939F9382E0C2
:10019A0090E0909303018093020184EF91E09093A1
:1001AA000101809300019F918F910F900FBE0F90D4
:0401BA001F901895E5
:1001BE00EC010E94EF000E94EE00CE010E94F000C2
:0601CE00CE010E94EC00CE
:0401D4000C94000087
:0401D8000E948500FC
:0201DC00089584
:0201DE00089582
:0201E000089580
:00000001FF
