:100000000C945A000C94CC010C94CC010C94CC01AF
:100010000C94CC010C94CC010C94CC010C94CC012C
:100020000C94CC010C94CC010C94CC010C94CC011C
:100030000C94CC010C94CC010C94CC010C94CC010C
:100040000C94CC010C94CC010C94CC010C94CC01FC
:100050000C94CC010C94CC010C94CC010C94CC01EC
:100060000C94CC010C94CC010C94CC010C94CC01DC
:100070000C94CC010C94CC010C94CC010C94CC01CC
:100080000C94CC010C94CC010C94CC010C94CC01BC
:100090000C94CC010C94CC010C94CC010C94CC01AC
:1000A0000C94CC010C94CC010C94CC010C94CC019C
:1000B0000C94CC0111241FBECFEFD8E0DEBFCDBF22
:0C00C0000E9466000C94B301F894FFCF7E
:1000CC008FEF8AB90E940A012FEF81EE94E0215044
:1000DC0080409040E1F700C0000081E480937C00F8
:1000EC0087E880937A000E94BE012FEF83ED90E3A6
:1000FC00215080409040E1F700C00000EAE7F0E0BA
:10010C0080818064808380917A0086FDFCCF209171
:10011C00780030917900A4EFB1E00E948C01052E9B
:10012C005AE096958795779567955A95D1F7502D06
:10013C0024E630E040E050E00E944D016B017C0170
:10014C00CA01B9010E94BB008EE20E949B01C7014B
:10015C00B6010E94BB002FEF83ED90E3215080404D
:0A016C009040E1F700C00000BECF94
:10017600EF92FF920F931F93CF93DF93CDB7DEB726
:100186002A970FB6F894DEBF0FBECDBF6115710575
:100196008105910521F480E00E94C8012BC0E12C65
:1001A600F12C87010F5F1F4F2AE030E040E050E05E
:1001B6000E944D01E1E0F0E0EC0FFD1FEE0DFF1D8A
:1001C6006083622F732F842F952F78016115710537
:1001D6008105910531F70BC001501109E1E0F0E00E
:1001E600EC0FFD1FE00FF11F80810E94C801101661
:1001F600110694F32A960FB6F894DEBF0FBECDBF54
:0E020600DF91CF911F910F91FF90EF9008951F
:100214002FEF83EC99E0215080409040E1F700C03B
:10022400000080E38BB99BB198609BB9000000008B
:100234009BB1977F9BB9E7EEF3E03197F1F700C0EC
:1002440000008BB99BB198609BB9000000009BB182
:10025400977F9BB9E7EEF3E03197F1F700C0000018
:100264008BB98BB188608BB9000000008BB1877F9C
:100274008BB987EE93E00197F1F700C0000088E2A4
:100284000E94A7018CE00E94A7010E94BE0186E0A3
:060294000E94A70108957D
:10029A00A1E21A2EAA1BBB1BFD010DC0AA1FBB1F80
:1002AA00EE1FFF1FA217B307E407F50720F0A21BF2
:1002BA00B30BE40BF50B661F771F881F991F1A945F
:1002CA0069F760957095809590959B01AC01BD0189
:0402DA00CF010895B3
:1002DE0029B12F70982F907F922B9BB99BB198606C
:1002EE009BB9000000009BB1977F9BB930E1839FC3
:1002FE00C0011124822B8BB98BB188608BB90000A1
:0A030E0000008BB1877F8BB90895C2
:10031800A29FB001B39FC001A39F700D811D11243E
:0E032800911DB29F700D811D1124911D08952D
:100336009BB194609BB90E946F0187EE93E0019791
:08034600F1F700C0000008956A
:10034E009BB19B7F9BB90E946F0187EE93E0019753
:08035E00F1F700C00000089552
:10036600EC010E94D1010E94D001CE010E94D2016F
:06037600CE010E94CE0141
:10037C0081E00E94A7018FE19EE40197F1F700C094
:04038C0000000895D0
:08039000805D0E949B010895AD
:040398000C940000C1
:04039C000E94640057
:0203A0000895BE
:0203A2000895BC
:0203A4000895BA
:00000001FF
