:100000000C9460000C94C3180C94C3180C94C3187F
:100010000C94C3180C94C3180C94C3180C94C318F4
:100020000C94C3180C94C3180C94C3180C94C318E4
:100030000C94C3180C94C3180C94C3180C94C318D4
:100040000C94C3180C94C3180C94C3180C94C318C4
:100050000C94C3180C94C3180C94C3180C94C318B4
:100060000C94C3180C94C3180C94C3180C94C318A4
:100070000C94C3180C94C3180C94C3180C94C31894
:100080000C94C3180C94C3180C94C3180C94C31884
:100090000C94C3180C94C3180C94C3180C94C31874
:1000A0000C94C3180C94C3180C94C3180C94C31864
:1000B0000C94C3180100010D80010D011100319451
:1000C00011241FBECFEFD8E0DEBFCDBFE4EBF0E0E0
:1000D00040E017C0B591A59135912591059107FD97
:1000E0000CC095918591EF01F92FE82F05900D92A5
:1000F000A217B307D9F7FE0104C01D92A217B307D8
:10010000E1F7E03CF40731F70E9439050C94381808
:04011000F894FFCF91
:100114007B226E616D65223A2200222C2276616C6C
:100124007565223A2200227D005D0A002C004553A9
:10013400503A7061796C6F61643A5B002253756365
:1001440063657373220A004553503A726573746190
:1001540072740A004553503A636F6E6E6563740A95
:100164000030004E555253452043414C4C004F4BF8
:1001740000434845434B2050524553535552450084
:10018400434845434B2054454D5000543A200020E9
:10019400503A20000A0074656D706572617475725E
:1001A400650070726573737572650032380074652A
:1001B400616D0073746174757300312E4661696CEE
:1001C400202825642900312E5375636365737300F9
:1001D4004D6F76696E67206F6E004553503A7572A5
:1001E4006C3A22687474703A2F2F3139322E3136BA
:1001F400382E312E3235303A353030302F64617438
:1002040061220A00322E4661696C20282564290087
:10021400322E53756363657373004553503A747299
:08022400616E736D69740A003C
:10022C0068076C094C836A9074A07AC00080688857
:06023C0000846C820081C9
:07024200286E756C6C2900A9
:06024900286E696C29001B
:10025000A3EAB0E0EEE2F1E00C941D164C01590166
:10026000C756DF4F488359836A83C959D040212C30
:10027000312C6E012BE8C20ED11C85E2782E2601AE
:1002800030E8632ECE018D569F4FC456DF4F9983C1
:100290008883CC59D0409C0140E8CF55DF4F28835C
:1002A00039834A83C15AD040C756DF4F4881C95964
:1002B000D040C656DF4F5881CA59D040C556DF4F8F
:1002C0006881CB59D040FA01849167FD80818823F1
:1002D00009F4C9C3CF57DF4F19821882C158D040E3
:1002E0008FEF9FEFCD57DF4F99838883C358D0405E
:1002F000CB57DF4F19821882C558D040A1E0B0E03B
:10030000AC0FBD1FC957DF4FB983A883C758D04072
:10031000E0E8F0E0C757DF4FF983E883C958D040E1
:10032000CA01A62FE12CF12CFC012491A7FD20810C
:1003300021111BC0E114F10401F19701C4010E94D5
:100340006A13C756DF4F88819981AA81C959D04065
:100350008E0D9F1DA11DF7FCAA95C756DF4F888300
:100360009983AA83C959D04008C00196A11D25329E
:1003700009F3FFEFEF1AFF0AD7CFC756DF4F888187
:100380009981AA81C959D040FC012491A7FD2081FF
:10039000253209F056C39C014A2F2F5F3F4F4F4F24
:1003A000C256DF4F288339834A83CE59D040C7567F
:1003B000DF4F288339834A83C959D040C756DF4F5E
:1003C00088819981AA81C959D040FC012491A7FD57
:1003D00020812B3241F4CF57DF4F28813981C1581A
:1003E000D04024600BC02C32CCF02D3259F5CF57C1
:1003F000DF4F28813981C158D0402160CF57DF4F6E
:1004000039832883C158D0400196A11DC756DF4FBC
:1004100088839983AA83C959D040D0CF203241F430
:10042000CF57DF4F28813981C158D0402860E6CFAF
:10043000233291F4CF57DF4F28813981C158D04002
:100440002061DCCF203341F4CF57DF4F2881398141
:10045000C158D0402260D2CF2A3299F50196A11D11
:10046000C756DF4F88839983AA83C959D040D501E5
:10047000ED91FC911197CF0102968D939C93808111
:100480009181CB57DF4F99838883C558D04097FF20
:100490003EC0CF57DF4F28813981C158D040B1E0ED
:1004A0002B27CF57DF4F39832883C158D0409195F0
:1004B00081959109CB57DF4F99838883C558D040E8
:1004C00026C0BC018A2F0E94F611CB57DF4F9983BB
:1004D0008883C558D040C756DF4F288139814A816B
:1004E000C959D040F901849147FD8081082E000C44
:1004F000990BC0970A9758F42F5F3F4F4F4FC7563D
:10050000DF4F288339834A83C959D040E4CFCF577E
:10051000DF4F88819981C158D04080FF07C08D7F0F
:10052000CF57DF4F99838883C158D040C756DF4FDC
:1005300088819981AA81C959D040FC012491A7FDE5
:1005400020812E3209F058C0CD57DF4F1982188212
:10055000C358D0409C014A2F2F5F3F4F4F4FC75683
:10056000DF4F288339834A83C959D040F901549118
:1005700047FD50815A32D1F40296A11DC756DF4F74
:1005800088839983AA83C959D040D501ED91FC9104
:100590001197CF0102968D939C9380819181CD57C5
:1005A000DF4F99838883C358D04026C0842FB90178
:1005B0000E94F611CD57DF4F99838883C358D040EE
:1005C000C756DF4F288139814A81C959D040F90186
:1005D000849147FD8081082E000C990BC0970A97E3
:1005E00058F42F5F3F4F4F4FC756DF4F2883398353
:1005F0004A83C959D040E4CFCE0187569F4F0E940D
:100600001411182FC756DF4F2881C959D040C6563C
:10061000DF4F8881CA59D040C556DF4F9881CB59EA
:10062000D040E22FF82F849197FD8081082E000C96
:10063000990B0E9471188936910509F45AC0B4F4D7
:100640008336910509F466C144F48532910509F4B5
:10065000A1C18136910529F1B3C18436910509F410
:1006600048C0883691050CF42DC1AAC18037910588
:1006700009F4CBC04CF48E36910509F419C18F36BC
:10068000910509F47CC09CC18537910509F454C0DB
:100690008837910509F496C08337910509F090C118
:1006A00058C1612F70E0A501C6010E942C15892B4D
:1006B00009F4B7C1C756DF4F88819981AA81C9590A
:1006C000D0409C014A2F2F5F3F4F4F4FC756DF4FFF
:1006D000288339834A83C959D040FC012491A7FD5E
:1006E0002081A601BE016F577F4FC4010E94C01830
:1006F00095C1612F70E0950141E050E0C6010E9474
:10070000170A892B09F48DC1C756DF4F888199815B
:10071000AA81C959D0400196A11DC756DF4F8883D1
:100720009983AA83C959D040A601BE016F577F4F54
:10073000C4010E94580972C1612F70E0950140E028
:1007400050E0C6010E94170A892B09F46AC1C756F6
:10075000DF4F88819981AA81C959D0400196A11D96
:10076000C756DF4F88839983AA83C959D040A60111
:10077000BE016F577F4FC4010E9419104FC1612FF6
:1007800070E0950140E050E0C6010E94170A892BF5
:1007900009F447C1C756DF4F88819981AA81C95999
:1007A000D0400196A11DC756DF4F88839983AA8345
:1007B000C959D040A601BE016F577F4FC4010E94A6
:1007C000850E2CC1612F70E0950140E050E0C6011C
:1007D0000E94170A892B09F424C1C756DF4F88816C
:1007E0009981AA81C959D0409C014A2F2F5F3F4F60
:1007F0004F4FC756DF4F288339834A83C959D040AA
:10080000FC012491A7FD20814BC0950140E050E000
:1008100060EF70E0C6010E94170A892B09F401C13C
:10082000C756DF4F88819981AA81C959D040019666
:10083000A11DC756DF4F88839983AA83C959D04029
:1008400086E029E432E040E0F901DE01AD56BF4F19
:10085000742F0E941318D6012C9111963C91119778
:1008600012964C91129713965C91139714966C9173
:10087000149715967C91159716968C911697179646
:100880009C91A0E00E942C1851F400E010E0CF559C
:10089000DF4F288139814A81C15AD040B9C028E749
:1008A000A601BE016F577F4FC4010E943107B6C039
:1008B000612F70E09501A1014E0D5F1DC6010E94E0
:1008C000D90CAFC0612F70E0A501C6010E942C15A4
:1008D000892B09F4A6C0C756DF4F88819981AA8168
:1008E000C959D0409C014A2F2F5F3F4F4F4FC756E9
:1008F000DF4F288339834A83C959D040FC012491B2
:10090000A7FD2081A601BE016F577F4FC4010E9441
:10091000C01884C0103809F084C0C756DF4F8881E2
:100920009981AA81C959D0400196A11DC756DF4FB0
:1009300088839983AA83C959D040D501ED91FC9150
:100940001197CF0102968D939C938081F60180834D
:100950005BC0103809F065C0C756DF4F88819981A8
:10096000AA81C959D0400196A11DC756DF4F88837F
:100970009983AA83C959D040D501ED91FC91119773
:10098000CF0103968D939C9320813181428100E0B9
:1009900010E03EC0103809F044C0C756DF4F8881D0
:1009A0009981AA81C959D0400196A11DC756DF4F30
:1009B00088839983AA83C959D040F601708224C0E4
:1009C000D6017C92C256DF4F288139814A81CE59A7
:1009D000D040C756DF4F288339834A83C959D04056
:1009E000CF57DF4F19821882C158D040CB57DF4F05
:1009F00019821882C558D0408FEF9FEFCD57DF4F37
:100A000099838883C358D04001E010E0462D9201BD
:100A1000BE016F577F4FC4010E94560F8E0D9F1D60
:100A200011C0C756DF4F88819981AA81C959D0402A
:100A30000196A11DC756DF4F88839983AA83C959A0
:100A4000D040C7017101E80EF91EE214F3044CF422
:100A50008FE490E090930201809301018FEF9FEF6C
:100A600003C0170121CCC101CD55DF4FE2E10C9449
:020A7000391635
:100A7200CF93DF93CDB7DEB7CB55D1090FB6F8943C
:100A8200DEBF0FBECDBF87E690E00E94EC170E944A
:100A9200AA1860E086E00E94F9160E94FB120E94EA
:100AA2007B140E94F9170E9400149EAF8DAF81152E
:100AB200904811F41EAE1DAE6AE0CE01CD960E94A2
:100AC20020180E940618182F0E943E12883351F4F3
:100AD2002BE030E047E651E060E0CE01CF960E9485
:100AE200871650C08332A9F4BE01615C7F4F80E853
:100AF20027E631E040E00E940B15892B51F423E0F8
:100B020030E042E751E060E0CE01CF960E948716C6
:100B120039C08CEF810F893050F02FE030E045E78B
:100B220051E060E0CE01CF960E9487162BC08DADBA
:100B32009EAD95958795959587959595879595956C
:100B420087958297049750F02BE030E044E851E01B
:100B520060E0CE01CF960E94871614C0BE01615C90
:100B62007F4F80E827E631E040E00E940B15892B99
:100B720049F023E030E042E751E060E0CE01CF9659
:100B82000E948716812F0E94BB0F5C0161E070E01A
:100B92008DAD9EAD0E94710869969FAF8EAF699729
:100BA20024E030E04FE851E060E08E010F5F1F4F1C
:100BB200C8010E94871669968EAD9FAD6997A0E81D
:100BC2006C968DAF9EAFAFAF6C97680190E8E92E3F
:100BD2008E2DB6010E94CE166C964DAD5EAD6FADF8
:100BE2006C97800F911F0E94C3178E2DB6010E9431
:100BF200CE1625E030E043E951E060E0800F911F1E
:100C02000E9487161501A0E84A2E8E2DB6010E9479
:100C1200CE16642DA101800F911F0E94C3178E2D45
:100C2200B6010E94CE1622E030E048E951E060E0D1
:100C3200800F911F0E9487163E012FE3620E711CE6
:100C420080E8882E8E2DB6010E94CE16682DA30153
:100C5200800F911F0E94C3178E2DB6010E948A1524
:100C62009FEFA3ED20E39150A0402040E1F700C0A8
:100C720000006C962DAD3EAD4FAD6C976AE971E008
:100C820080E00E94450D61969FAF8EAF6197442D23
:100C9200910166EA71E080E00E94450D63969FAF84
:100CA2008EAF63972FEA31E040E062EB71E080E0C3
:100CB2000E94450D65969FAF8EAF6597482D9301B3
:100CC20067EB71E080E00E94450D67969FAF8EAFA3
:100CD200679761966EAD7FAD619780E80E948A1535
:100CE2008FEF93EDA0E381509040A040E1F700C068
:100CF2000000BE01615B7F4F84E090E00E94B00D76
:100D02008C011C0120E8422E842DB1010E948A151B
:100D12008FEF97EAA1E681509040A040E1F700C032
:100D220000000E944D183C010097B9F07F928F930A
:100D32008EEB91E0A0E0AF939F938F931F928CE391
:100D42008F93CE0101969F938F930E94E4160FB664
:100D5200F894DEBF0FBECDBF09C02AE030E04AECF6
:100D620051E060E0CE0101960E9487168E2DB601F9
:100D72000E948A159FEFA3ED20E39150A0402040EE
:100D8200E1F700C0000064ED71E080E00E948A1586
:100D92006EED71E080E00E946311892BB9F07F92C1
:100DA2006F9288E092E0A0E0AF939F938F931F929F
:100DB2008CE38F93CE0101969F938F930E94E4164A
:100DC2000FB6F894DEBF0FBECDBF09C02AE030E0F7
:100DD20044E152E060E0CE0101960E9487168E2D1A
:100DE200B6010E948A159FEFA3ED20E39150A04027
:100DF2002040E1F700C00000842DB1010E94631180
:100E02006EE172E080E00E946311C5010E94BF1290
:100E120069968EAD9FAD69970E94BF12C8010E946C
:100E2200BF1200E010E00FC0F801EE0FFF1F8FE4C9
:100E320090E08C0F9D1FE80FF91F808191810E9425
:100E4200BF120F5F1F4F0430110574F39FEFA3ED24
:100E520020E39150A0402040E1F700C0000023CEE3
:100E6200A4E1B0E0E7E3F7E00C941D1698878F83C6
:100E72007A8369835C8B4B8B122FDB011296ED9187
:100E8200FC91139714962D913C9115973E832D83D7
:100E9200ED90FC90119716962D903C901797F7FDC8
:100EA20003C0E894E1F802C0E1E0F0E0C70180711C
:100EB20099279A878987E4FE1FC0AB89BC892C9148
:100EC20011963C91119712964C91129713965C9140
:100ED200139714966C91149715967C911597169604
:100EE2008C91169717969C91A0E00E942C1821F0E5
:100EF2008D819E81029702C08D819E81970128700B
:100F020033273C872B87E3FC0197AB89BC894C9044
:100F120011965C90119712966C90129713967C9092
:100F2200139714968C90149715969C901597169675
:100F3200AC9016971796BC90A981BA811896CD905D
:100F4200DC901997B1E0CB1AD108D101AC0DBD1DCF
:100F52001C929C838B839F01281B390B3E872D8714
:100F6200C70182709927988B8F87812F012E000CE1
:100F7200990BDC01A154B109BA8BA98B32E0C316DB
:100F8200D10434F489859A85892B09F04CC073C049
:100F92009201A301B401C501A0E00E942C1881F1C5
:100FA200B1E0CB1AD108C2018F7099278A3091051E
:100FB20014F4C09602C0895A9F4FE989FA897A9738
:100FC20048F49C012062215631092A31310510F47E
:100FD2000E946018F101EC0DFD1D80832B813C8184
:100FE200215031093C832B839201A301B401C50135
:100FF20004E00E94C81529013A014B015C01BECFF1
:101002008D859E85AB81BC818A0F9B1F18161906A0
:101012003CF21A161B060CF0B5CFEF85F889EF2BC0
:1010220009F0BECFAFCFAB89BC892C9111963C9110
:10103200119712964C91129713965C9113971496EE
:101042006C91149715967C91159716968C9116971C
:1010520017969C91A0E00E942C1869F0F101EC0D0A
:10106200FD1D31971083B2E0CB1AD108F101EC0DCE
:10107200FD1D80E38083EB85FC85EF2B41F0F1E0E1
:10108200CF1AD108F101EC0DFD1D80E28083A98108
:10109200BA8118962D913C911997215031092C193A
:1010A2003D09C20CD31CA60160E80D811E818F810F
:1010B20098850E94750B9C01EF81F8858081918152
:1010C20090FF09C0A981BA8112968D919C911397C4
:1010D200821793070CF4C9016496E2E10C94391665
:1010E2004F925F926F927F928F929F92AF92BF9236
:1010F200CF92DF92EF92FF920F931F93CF93DF93E2
:10110200CDB7DEB761970FB6F894DEBF0FBECDBF85
:101112005C014B0180E490E00E946C0C6C01BB20EE
:1011220054F48DE2F6018083B194A194B108EE24C7
:10113200E394F12C02C0E12CF12C85011595079561
:10114200159507951595079515950795B501BB0C4E
:10115200880B990B0E94841220E030E040E85DE3A6
:101162000E94B6182B013C01B801012E000C880B1D
:10117200990B0E9484129B01AC01C301B2010E942F
:1011820087182B013C010115110599F42DC0C801E6
:101192006AE070E00E940D17E1E0F0E0EC0FFD1F45
:1011A200E20FF31F805D8083062F172F2F5F3F4FC3
:1011B20002C020E030E00115110549F7C90101978D
:1011C20010C0D601AE0DBF1DE1E0F0E0EC0FFD1F37
:1011D200E80FF91F20812C93019797012F5F3F4F52
:1011E2007901992374F708C0F601EE0DFF1D80E323
:1011F2008083C70101967C0187010F5F1F4FF601B3
:10120200EE0DFF1D8EE28083E12CF12C2AC020E03E
:1012120030E040E251E4C301B2010E94B6182B0152
:101222003C0158019FEFA91AB90A0C0D1D1DC301FB
:10123200B2010E948E1820E3260FF8012083072EA8
:10124200000C880B990B0E9484129B01AC01C30114
:10125200B2010E9487182B013C01FFEFEF1AFF0A2F
:101262008501E814F9049CF2C8010196F601E00F29
:10127200F11F23E42083F601E80FF91F1082C60153
:1012820061960FB6F894DEBF0FBECDBFDF91CF914E
:101292001F910F91FF90EF90DF90CF90BF90AF9092
:0E12A2009F908F907F906F905F904F90089577
:1012B000ADE0B0E0EEE5F9E00C941D169A87898761
:1012C0007C836B83FA01DB011296CD90DC9013973F
:1012D00014968D919C9115979E838D83ED90FC9033
:1012E0001197FA82E98216960D90BC91A02DB887CD
:1012F000AF832080318042805380648075808680F7
:1013000097808101B42DF52DE62D7B868C869D86F8
:101310009101A201B301C401A0E00E942C184CF479
:101320000E94A4178901B42FF52FE62F7B878C87A5
:101330009D87D7FC04C0E894E1F8FA82E982910124
:10134000A201B301C401A0E0ED80FE800E942C1830
:101350001CF0898182FF04C081E0E81AF10805C011
:1013600083FF03C091E0E91AF108CE0101965C0108
:101370008AE0C82ED12C2B2F3F2F4E2F5B856C85FA
:101380007D858B819C810E94D00AFC019101A20184
:10139000B301C401A0E00E942C181CF0898182FFD7
:1013A00012C031970F8118850E0F1F1F9101A201E6
:1013B000B301C401A0E00E942C1814F08BE201C01C
:1013C0008DE2D80108C083FF07C03197AF81B8858F
:1013D000AE0FBF1F80E28C93E980FA80AB81BC81A5
:1013E00018962D913C911997215031092E1B3F0BD6
:1013F0008F819885E80FF91FAF0160E80D811E818C
:1014000089859A850E94750B9C01A985BA858D9165
:101410009C9190FF07C0EB81FC81828193818217B0
:0E14200093070CF4C9012D96E2E10C943916E5
:10142E000F931F93CF93DF93FC01D9016838710599
:10143E0031F194F461387105B1F12CF46038710515
:10144E0009F478C09FC06238710509F459C0643838
:10145E00710509F46FC096C0603A710509F448C071
:10146E002CF46039710509F44BC08CC0603C7105D9
:10147E0009F476C0603F710509F472C083C0CD9146
:10148E00DC911197CE0102968D939C93452B39F0EA
:10149E009881892F880F880B908381835BC0888108
:1014AE008083118268C0CD91DC911197CE01049694
:1014BE008D939C93452B99F088819981AA81BB814C
:1014CE00AC01BD01770F440B542FBA018083918379
:1014DE00A283B383448345834683478328C0088110
:1014EE0019812A813B81008311832283338345C076
:1014FE00CD91DC911197CE0102968D939C9323C0D2
:10150E00CD91DC911197CE0108968D939C937881A5
:10151E0069815A814B813C812D819E818F8170839F
:10152E00618352834383348325839683878381E04B
:10153E0090E02AC0CD91DC911197CE0102968D9349
:10154E009C93452BA1F099812881892F880F880BB8
:10155E002083918382838383848385838683E6CFEE
:10156E00CD91DC911197CE0102968D939C930881BB
:10157E0019810083118312821382148215821682BE
:10158E001782D5CF80E090E0DF91CF911F910F9120
:02159E000895AE
:1015A000A2E1B0E0E6EDFAE00C941D16FC010A8B16
:1015B0001B832C83732E642E552E462E7D83CC8662
:1015C000D886BF82AE82868197819B878A87D50124
:1015D0004D915C91228133818085918501971C0119
:1015E00037FF02C021E030E0EA85FB85E80FF91FF4
:1015F00010824701E1E0F0E0FA83E983C9018E1926
:101600009F099E878D87DA01A270BB27B88BAF87B1
:10161000B885BB0FBB0BB98B1214130474F0A981EE
:10162000BA81AB2B09F05CC0AE81BF818D919C91DA
:1016300011978F7E8D939C9353C02A893B814C8157
:10164000572D662D752D842D9D81A0E00E942C18AC
:10165000B1F1E1E02E1A3108FC85F987AF2EB8848C
:10166000C988DC2CEC2CFC2C0C2D1C2D2A893B81F0
:101670004C81572D662D752D842D9D810E94D1178B
:10168000C90129839A83EA85FB85E20DF31D805DFC
:10169000808381E0881A91082A893B814C81572DEB
:1016A000662D752D842D9D810E94D3172A8B3B8337
:1016B0004C83752E662E572E482E9D83ADCF8D857B
:1016C0009E85880D991D181619061CF21814190408
:1016D0000CF0A5CFEF85F889EF2B09F0BACF9FCF9B
:0A16E000C1016296E2E10C94391694
:1016EA002F923F924F926F927F928F92AF92BF92B8
:1016FA00CF92DF92EF92FF920F931F93CF93DF93D4
:10170A00CDB7DEB766970FB6F894DEBF0FBECDBF72
:10171A005C013A01862E6901C701817099279C8B69
:10172A008B8BE0FC1DC020173107D4F47801EC182C
:10173A00FD08FE8AED8AA70191E1E916F10410F08D
:10174A0040E150E060E270E0CE0101969A8B898B0D
:10175A000E94571889899A891C0120E8422E0BC0D9
:10176A009601682DA301C5010E946A13C016D1060D
:10177A00ECF2C60125C090E1E916F10458F020E127
:10178A0030E0642DA101C5010E946A1380E1E81AC4
:10179A00F108F1CF2D893E892F70332789899A89DB
:1017AA00AC0160E8C5010E946A138B899C89892B68
:1017BA0031F49601682DA301C5010E946A13C8017C
:1017CA0066960FB6F894DEBF0FBECDBFDF91CF91FC
:1017DA001F910F91FF90EF90DF90CF90BF90AF9045
:0E17EA008F907F906F904F903F902F900895BA
:1017F800EF92FF920F931F93CF93DF9360910501B0
:10180800709106016115710509F45BC0FB01A0E048
:10181800B0E040E050E0C0E0D0E0008111812281DA
:1018280033810817190771F4109729F013963C9320
:101838002E93129704C03093060120930501CF011F
:10184800029641C08017910748F4209729F0E88054
:10185800F9800E151F0510F4AD01EF01DF01211508
:10186800310511F0F901D9CF209759F10A811B816F
:10187800FE0121913191281B390B2530310588F063
:1018880099838883DF01A80FB91F22503109119667
:101898003C932E9312960C93129713961C931397BE
:1018A8008D01C617D70729F4009305011093060187
:1018B80006C0DA0112960C93129713961C93CF0167
:1018C80002C080E090E0CDB7DEB7E6E00C944516A4
:1018D800A2E0B0E0E2E7FCE00C9427168C018FEB65
:1018E80092E10115110509F455C0892B79F00230F0
:1018F800110510F402E010E0C8010E94FC0B0097EB
:1019080009F04FC092E0E92EF12C04C08FEBE82ECD
:1019180082E1F82E80910701909108012091090138
:1019280030910A01821B930B6701C00ED11E8017EC
:101938009107F0F4DA82C982CE0101960E9433132E
:10194800009719F480E090E02CC0209107013091B5
:1019580008018217930721F090930A0180930901E7
:1019680029813A81820F931F909308018093070180
:10197800E0910901F0910A01CF01E114F10419F095
:10198800029611830083CE0EDF1ED0920A01C09208
:10199800090107C0009709F0ADCF7C0101E010E014
:0A19A800B9CF2296E8E00C94431634
:1019B200CF93DF93DC01F90164387105D9F164F446
:1019C2006138710521F16238710509F440C060384F
:1019D200710509F054C02EC060397105C1F184F45B
:1019E2006838710509F04BC0C081D181CE010296E1
:1019F20091838083E881F981ED93FC9340833CC01D
:101A0200603A7105B9F0603C7105A1F038C0C0813F
:101A1200D181CE01029691838083E881F981ED9391
:101A2200FC93052E000C660B770B40835183628377
:101A3200738322C0C081D181CE01029691838083BB
:101A4200E881F981ED93FC935183408315C0C081F5
:101A5200D181CE01029691838083E881F981ED9351
:101A6200FC9351834083852F880F880B8283838365
:101A7200848385838683878381E090E002C080E04F
:081A820090E0DF91CF9108957F
:101A8A006F927F928F92CF92DF92EF92CF93DF93F2
:101A9A0000D000D00F92CDB7DEB769837A838B83EB
:101AAA003901842E80E490E00E946C0C9D838C8323
:101ABA002AE030E044E151E060E00E9487162C8180
:101ACA003D81690180E8E82E8E2DB6010E94CE166E
:101ADA0049815A816B81EC81FD818E0F9F1F0E9483
:101AEA00C3178E2DB6010E94CE162CE030E04EE1CF
:101AFA0051E060E0EC81FD818E0F9F1F0E948716E6
:101B0A008E2DB6010E94CE16682DA3012C813D812F
:101B1A00820F931F0E94C3178E2DB6010E94CE1604
:101B2A0023E030E04AE251E060E0EC81FD818E0F73
:101B3A009F1F0E9487168C819D810F900F900F9096
:101B4A000F900F90DF91CF91EF90DF90CF908F9011
:061B5A007F906F900895DA
:101B60002F923F924F926F927F928F92AF92BF923D
:101B7000CF92DF92EF92FF920F931F93CF93DF9359
:101B80006C015B0188E391E00E946C0C7C012EE00B
:101B900030E042E351E060E00E948716C0E0D0E010
:101BA00035C0FE01EE0FFF1FEA0DFB1D0081118104
:101BB000370180E8882E882DB3010E94CE16A80137
:101BC00060E88E0D9F1D0E94C317C6010197C817BC
:101BD000D90749F40F2EFDE22F2EF1E03F2EF0E061
:101BE0004F2EF02D08C00F2EF0E32F2EF1E03F2EE8
:101BF000F0E04F2EF02D882DB3010E94CE16642DFB
:101C0000A1018E0D9F1D0E94C3172196CC15DD05E5
:101C100044F2C701DF91CF911F910F91FF90EF9098
:101C2000DF90CF90BF90AF908F907F906F904F904C
:061C30003F902F90089583
:101C36000FC00E94951838F00E949C1820F095233A
:101C460011F00C94B0180C94BD1811240C94A4181F
:101C56000E94E91470F3959FC1F3950F50E0551F4C
:101C6600629FF001729FBB27F00DB11D639FAA27EB
:101C7600F00DB11DAA1F649F6627B00DA11D661F3A
:101C8600829F2227B00DA11D621F739FB00DA11D5B
:101C9600621F839FA00D611D221F749F3327A00D15
:101CA600611D231F849F600D211D822F762F6A2FB1
:101CB60011249F5750409AF0F1F088234AF0EE0F16
:101CC600FF1FBB1F661F771F881F91505040A9F743
:101CD6009E3F510580F00C94B0180C94A4185F3FF9
:101CE600E4F3983ED4F3869577956795B795F7957F
:101CF600E7959F5FC1F7FE2B880F911D96958795F7
:041D060097F90895AC
:101D0A00A2E0B0E0EBE8FEE00C941D161C014B01CA
:101D1A00FA01DB0112962D913C91139714964D907E
:101D2A005C9015978D919C9111979A838983169649
:101D3A006D907C90179737FD03C08D7F9A838983B6
:101D4A0000811181228133814481558166817781A5
:101D5A00FE0131965F0188E0C82ED12C7201C401C0
:101D6A000E94D00A298124FF06C00197F301E80FD7
:101D7A00F91F20E32083298123FF06C00197F3017D
:101D8A00E80FF91F20E22083E980FA80D40118962F
:101D9A002D913C91199721503109281B390B860D39
:101DAA00971DAC0160E88201C1010E94750B9C017C
:101DBA00F1018081918190FF08C0D40112968D9122
:101DCA009C911397821793070CF4C9012296E2E1BA
:041DDA000C94391616
:101DDE0011C00E94951838F00E949C1820F039F41A
:101DEE009F3F19F426F40C94BD180EF4E095E7FB12
:101DFE000C94B018E92F0E94E91458F3BA17620731
:101E0E0073078407950720F079F4A6F50C94A318B0
:101E1E000EF4E0950B2EBA2FA02D0B01B9019001F7
:101E2E000C01CA01A0011124FF27591B99F0593F3B
:101E3E0050F4503E68F11A16F040A22F232F342F83
:101E4E004427585FF3CF469537952795A795F040D1
:101E5E005395C9F77EF41F16BA0B620B730B840BE6
:101E6E00BAF09150A1F0FF0FBB1F661F771F881F9E
:101E7E00C2F70EC0BA0F621F731F841F48F48795F6
:101E8E0077956795B795F7959E3F08F0B0CF9395E8
:0E1E9E00880F08F09927EE0F97958795089505
:101EAC002F923F924F926F927F928F92AF92BF92EE
:101EBC00CF92DF92EF92FF920F931F93CF93DF930A
:101ECC00CDB7DEB727970FB6F894DEBF0FBECDBFE8
:101EDC006C017B013901842E980182E4282E82E06A
:101EEC00382E80E0482E87E0F101AE014F5F5F4F46
:101EFC00DA01742D0E941318F70102811381A4805A
:101F0C00B580E080F18061147104810419F43A0108
:101F1C00F0E88F2E2115310529F4882DB3010E948C
:101F2C00CE169C0117FD04C00217130708F4980184
:101F3C008501682DA301C6010E94750B27960FB66B
:101F4C00F894DEBF0FBECDBFDF91CF911F910F91E3
:101F5C00FF90EF90DF90CF90BF90AF908F907F90DD
:0A1F6C006F904F903F902F90089562
:101F7600EF92FF921F93CF93DF9300D000D00F9282
:101F8600CDB7DEB7182F80E094E00E946C0C7C0180
:101F9600111123C022E030E045E651E060E00E94E6
:101FA600871638C0E1E0F0E0EC0FFD1FE20FF31FEB
:101FB60087E61802812D11248595859517FD839551
:101FC600482F440F942F990F990F940F191B105DEA
:101FD6001083182F2F5F3F4F02C020E030E0111111
:101FE600E1CFC901019720E030E00EC0D701A20F72
:101FF600B31FE1E0F0E0EC0FFD1FE80FF91F408191
:102006004C9301972F5F3F4F992384F7F701E20F17
:10201600F31F1082C7010F900F900F900F900F9033
:0C202600DF91CF911F91FF90EF90089583
:10203200A2E0B0E0EFE1F0E10C941D163C014B018F
:10204200FA01DB0112962D913C91139714964D9053
:102052005C9015978D919C9111979A83898316961E
:102062002D903C90179737FD03C08D7F9A8389830B
:10207200008111812281338144815581668177817A
:10208200FE0131965F018AE0C82ED12C7201C40193
:102092000E94D00AE980FA80D40118962D913C91D1
:1020A200199721503109281B390B820D931DAC0160
:1020B20060E88201C3010E94750B9C01F3018081DB
:1020C200918190FF08C0D40112968D919C91139733
:1020D200821793070CF4C9012296E2E10C94391697
:1020E2006F927F928F92EF92FF920F931F93CF93F3
:1020F200DF93CDB7DEB761970FB6F894DEBF0FBEA0
:10210200CDBFFE01319651E1DF011D925A95E9F7EB
:10211200A2E0B1E0BA83A9839C838B8377FF09C0D5
:102122008FE490E090930201809301018FEF9FEF83
:1021320019C03901842E7C01615071097F836E833D
:102142009801682DA301CF010E94A01648855985E8
:102152002E813F814217530708F49A01F701E20FDB
:10216200F31F108261960FB6F894DEBF0FBECDBF8B
:10217200DF91CF911F910F91FF90EF908F907F9001
:042182006F900895BD
:1021860088249924F401E401B0E49F93AA279A15C0
:102196008B049C04ED05FE05CF05D007A10798F436
:1021A600AD2FDC2FCF2FFE2FE92D982C892E982FBF
:1021B600872F762F652F542F432F322F2227B85083
:1021C60031F7BF9127C01B2EBF91BB27220F331FAC
:1021D600441F551F661F771F881F991F881C991C4F
:1021E600EE1FFF1FCC1FDD1FAA1FBB1F8A149B04F7
:1021F600EC05FD05CE05DF05A007B10748F08A18F6
:102206009B08EC09FD09CE09DF09A00BB10B216083
:102216001A94E1F62EF49401AF01BE01CD01000C33
:02222600089519
:10222800CF92DF92EF92DC0190E0292F30E0220F6D
:10223800331F6901032E000CEE086E2DA601445DC4
:102248005D4F6F4F6A01E62EFA018491E7FC8081A9
:1022580081110DC02F5F3F4F032E000C440B245DEE
:102268003D4F4F4FF901849147FD808124C0CD90A7
:10227800DD90EC901297F6014491E7FC40818413BD
:1022880015C02F5F3F4F032E000C440B245D3D4FBC
:102298004F4FF901949147FD90815FEFC51AD50A18
:1022A800E50ACD92DD92EC92129701C09F5F9B30B8
:0E22B80008F4BBCF892FEF90DF90CF900895F0
:1022C600CF92DF92EF920F931F93CF93DF936B0121
:1022D600E82E0E948A152FEF89E698E1215080406A
:1022E6009040E1F700C000008E2DB6010E94B8169E
:1022F6000E94A014EC016C0120E8E22E20E431E0FB
:1023060040E08E2DB6010E944C158C018E2DB60133
:102316000E948A158FEF93ED20E381509040204074
:10232600E1F700C000000E94DF178FEF93ED20E376
:10233600815090402040E1F700C00000CE010E948D
:10234600BF12C801DF91CF911F910F91EF90DF90DF
:04235600CF90089587
:10235A000F931F93CF93DF93DB012D913C9111973C
:10236A0030FF25C017964D915C91189715962D91BF
:10237A003C9116974217530778F41296ED91FC9107
:10238A001397808312962D913C9113972F5F3F4F9D
:10239A0013963C932E93129717962D913C9118976A
:1023AA002F5F3F4F18963C932E93179715C01D9693
:1023BA00ED91FC911E97309719F48FEF9FEF0CC0A7
:1023CA008B01EC010995892BC1F7F801878190856A
:1023DA00019690878783CE01DF91CF911F910F914C
:0223EA00089554
:1023EC00CF939B01482FF901849147FD8081803266
:1023FC00C9F1682F082E000C770B695071096530F4
:10240C00710580F18B3249F5A0E0B0E02F5F3F4FB2
:10241C004F4F02C0A0E0B0E080E090E0CAE0F901CC
:10242C00649147FD6081062E000C770B6053710997
:10243C006A30710560F4C89FF001C99FF00D11243A
:10244C002F5F3F4F4F4FCF01861B970BE8CFAB2B26
:10245C0069F491958195910909C08D32D9F6A1E065
:10246C00B0E0D4CF2F5F3F4F4F4FBDCFCF910895EA
:10247C000E94A81580FD20C081FD20C082FD20C0D7
:10248C0083FD20C084FD20C085FD20C086FD20C0BA
:10249C0087FD20C090FD20C091FD20C092FD20C082
:1024AC0093FD20C094FD20C095FD20C096FD20C05A
:1024BC00992304F581E408958AE2089580E3089550
:1024CC0083E2089584E4089587E3089588E30895EA
:1024DC0089E3089583E4089584E3089585E30895DA
:1024EC0086E3089582E4089581E3089582E30895D4
:0824FC0083E3089580E00895D8
:10250400E89409C097FB3EF4909580957095619589
:102514007F4F8F4F9F4F9923A9F0F92F96E9BB273F
:102524009395F695879577956795B795F111F8CFBB
:10253400FAF4BB0F11F460FF1BC06F5F7F4F8F4F26
:102544009F4F16C0882311F096E911C0772321F01C
:102554009EE8872F762F05C0662371F096E8862FB4
:1025640070E060E02AF09A95660F771F881FDAF70B
:0A257400880F9695879597F9089552
:10257E000097C9F1FC013297A0910501B0910601B7
:10258E00109759F1408151819C01240F351FA217DC
:10259E00B30779F412968D919C911397938382834E
:1025AE002D913C91CA01820F931F029691838083D5
:1025BE0016C08D919C9111979C012E5F3F4F2A0F53
:1025CE003B1FE217F30731F4840F951F02968D938C
:1025DE009C930895B383A28302C013821282F09358
:0825EE000601E09305010895C8
:1025F600CF93DF932FEF83EC99E0215080409040FA
:10260600E1F700C00000C0E0D0E00DC060E382E06A
:102616000E94F9160E94E41587EE93E00197F1F700
:1026260000C000002196C330D10584F360E282E049
:102636000E94F9160E94E41587EE93E00197F1F7E0
:1026460000C0000088E20E946E178CE00E946E17A0
:102656000E94DF1786E00E946E17DF91CF910895E2
:10266600FC014081518180910B0190910C01892BD5
:1026760041F480910F019091100190930C01809389
:102686000B0180910D0190910E01009719F48DB701
:102696009EB7809720910B0130910C0128173907BE
:1026A60048F08CE090E0909302018093010180E075
:1026B60090E00895821B930B8417950790F3420FC1
:0E26C600531F50930C0140930B01C90108955E
:1026D4006F927F928F92CF92DF92EF920F931F931C
:1026E400CF93DF938C016A01E62EE9013A01862E2D
:1026F400620E731E811C37FD8A94C614D704E80445
:1027040079F0F6018491E7FC8081B801082E000C71
:10271400990B0E94AD118FEFC81AD80AE80AEDCFC1
:10272400CE01DF91CF911F910F91EF90DF90CF9069
:082734008F907F906F900895D3
:10273C00EF92FF920F931F93CF93DF9380E00E9451
:10274C006E16E82EF12C81E00E946E16082F10E018
:10275C0082E00E946E16C82FD0E083E00E946E16B5
:10276C00282F30E002951295107F1027007F10273C
:10277C000E291F299C2F8827802B912B322F222743
:10278C003295307F822B932BDF91CF911F910F913C
:06279C00FF90EF9008958C
:1027A2000E94F11488F09F5798F0B92F9927B751DA
:1027B200B0F0E1F0660F771F881F991F1AF0BA95E3
:1027C200C9F714C0B13091F00E94A318B1E0089586
:1027D2000C94A318672F782F8827B85F39F0B93F78
:1027E200CCF3869577956795B395D9F73EF4909596
:0E27F2008095709561957F4F8F4F9F4F089592
:10280000CF93DF930E947B14882301F18CEC0E940C
:10281000351784E40E9435170E946B158130E1F76B
:102820000E947B148823A9F08CEC0E9435178EEB54
:102830000E9435170E945416C82FD0E00E945416EB
:1028400090E0982F88278C2B9D2B05C080E090E886
:0C28500002C080E090E8DF91CF91089575
:10285C0094EA9093BC009091BC009923E4F790917A
:10286C00B900987F983011F0903191F78093BB00AC
:10287C0094E89093BC009091BC009923E4F790915C
:10288C00B900987F903211F0983541F494E9909307
:0E289C00BC009091BC0094FDFCCFDACF0895F3
:1028AA0094EA9093BC009091BC009923E4F790912C
:1028BA00B900987F983011F0903191F48093BB0061
:1028CA0084E88093BC008091BC008823E4F780915F
:1028DA00B900887F883131F0803431F480E008957E
:0C28EA0081E0089580E0089581E00895E9
:1028F6008AB180618AB98BB18F7E8BB98FE797E0F9
:102906000197F1F700C000008AB18F7E8AB98BB1BA
:102916008F7E8BB9EFE8F1E03197F1F700C0000048
:1029260089B1EFEEF5E03197F1F700C0000082952E
:0A2936008F7091E0892781700895E9
:10294000EF92FF920F931F93CF93DF9380E094E079
:102950000E946C0C7C0120E030E089010F5F1F4F6A
:10296000E701C20FD31F0E948018888398018A3024
:10297000A1F7F701E00FF11F1082C701DF91CF919E
:0A2980001F910F91FF90EF90089552
:10298A009AB190619AB99BB19F7E9BB99AE09A9548
:10299A00F1F700C080FF04C08BB180618BB903C01E
:1029AA008BB18F7E8BB987EE90E00197F1F700C06B
:1029BA0000008AB18F7E8AB98BB18F7E8BB995E080
:0829CA009A95F1F70000089551
:1029D20057FD9058440F551F59F05F3F71F04795CE
:1029E200880F97FB991F61F09F3F79F087950895B3
:1029F200121613061406551FF2CF4695F1DF08C0D2
:102A0200161617061806991FF1CF869571056105EE
:042A12000894089587
:102A1600CF92DF92EF926B01E82EF6018491E7FCEC
:102A26008081F901549147FD508185130BC088239D
:102A360041F08FEFC81AD80AE80A2F5F3F4F4F4F71
:102A4600ECCF582F90E0851B9109EF90DF90CF9047
:022A56000895E1
:102A5800FA0160387105CCF0623871051CF06338F2
:102A6800710599F4A081B1819D012C5F3F4F31839D
:102A780020834D915D916D917C91FC014083518340
:102A88006283738381E090E0089580E090E0089588
:102A9800A82FCB0107C0561317C00196A11D2F5FA1
:102AA8003F4F4F4FFC015491A7FD5081552331F002
:102AB800F901649147FD60816111EDCF81E0511109
:0E2AC80001C080E090E0089581E090E0089564
:102AD6008AB180618AB98BB18F7E8BB98AE08A957B
:102AE600F1F700C08AB18F7E8AB98BB18F7E8BB920
:102AF600E5E3EA95F1F7000089B18071E3ECF0E0D7
:0E2B06003197F1F700C0000082958F7008959E
:102B1400CF92DF92EF926B01E82E0E94DF170CC078
:102B24008A3021F480EC0E946E1702C00E945B1769
:102B34008FEFC81AD80AE80AF6018491E7FC80816D
:0C2B44008111EECFEF90DF90CF9008954C
:102B5000CF93DF930E949E13EC018FE59AEE0197CD
:102B6000F1F700C000000E949E138C239D2320914A
:102B700003013091040120953095909304018093D6
:0C2B8000030182239323DF91CF9108957D
:102B8C0097FB10F8169400080F93083098F0085033
:102B9C00232F342F452F562F672F782F892F902DC9
:102BAC00F4CF0594979587957795679557954795A5
:0C2BBC00379527950A95AAF70F91089508
:102BC800CF9387EC90E00197F1F700C0000080E018
:102BD8000E944817C82F682F686082E00E94F91683
:102BE80087EC90E00197F1F700C000006C2F677F39
:0A2BF80082E00E94F916CF910895C3
:102C0200CF93DF93C82F60910001D62FDF70682F1A
:102C1200607F6D2B82E00E94F9160E94E41580E12C
:102C2200C89FB00111246D2B82E00E94F9160E9408
:082C3200E415DF91CF91089534
:102C3A002F923F924F925F926F927F928F929F92C2
:102C4A00AF92BF92CF92DF92EF92FF920F931F93B0
:102C5A00CF93DF93CDB7DEB7CA1BDB0B0FB6F89461
:082C6A00DEBF0FBECDBF0994CF
:102C72002A88398848885F846E847D848C849B840A
:102C8200AA84B984C884DF80EE80FD800C811B8118
:102C9200AA81B981CE0FD11D0FB6F894DEBF0FBE47
:062CA200CDBFED01089515
:102CA8001F93CF93DF93C0E0D0E010E00BC00E94E9
:102CB8006B1590E00C2E02C0880F991F0A94E2F75A
:102CC800182B2196C830D10594F3812FDF91CF912D
:042CD8001F910895AB
:102CDC0061E070E002C0660F771F8A95E2F760959D
:102CEC006F7083E00E94F9168FE891E00197F1F77D
:102CFC0000C0000081E00E944817809582958F707B
:022D0C00089528
:102D0E00CF92DF92EF926A01E62EDC01280F391F77
:102D1E00A217B30751F0F6014491E7FC40814D93A1
:102D2E004FEFC41AD40AE40AF3CFEF90DF90CF909E
:022D3E000895F6
:102D4000A2E0B0E0E6EAF6E10C942B168C013A839F
:102D500029839E012F5F3F4F0E942801F8012081A7
:102D600024FF02C08FEF9FEF2296E4E00C944716F9
:102D7000CF92DF92EF926B01E82E06C09FEFC91A47
:102D8000D90AE90A0E947918F6018491E7FC80814A
:0C2D90008111F4CFEF90DF90CF900895F8
:102D9C00CF92DF92EF926B01E82EA82FCB01FC01B2
:102DAC002491A7FD2081222319F00196A11DF7CFB4
:0C2DBC008C199D09EF90DF90CF900895D6
:102DC800A0E0B0E0EAEEF6E10C942B168E01025F6B
:102DD8001F4F2B853C854D8569857A858F81988520
:0A2DE8000E947110E4E00C944716FD
:102DF200CF93DF93D82FC62F80E40E942E148D2FFD
:102E02000E9481178C2F0E9481170E946918C0931B
:082E12000001DF91CF9108954A
:102E1A0097FB072E16F4009407D077FD09D00E947D
:102E2A00211707FC05D03EF4909581959F4F089590
:082E3A00709561957F4F08952A
:102E4200AA1BBB1B51E107C0AA1FBB1FA617B707CE
:102E520010F0A61BB70B881F991F5A95A9F78095EA
:082E62009095BC01CD0108951B
:102E6A001F93CF93DF93182FC0E0D0E005C0812FC6
:102E7A000E94C51421961695C830D105C4F3DF9176
:062E8A00CF911F91089595
:102E9000CF93C82F80E40E942E148C2F0E9481179C
:102EA00081E40E94BA180E944318C82F0E94691832
:062EB0008C2FCF91089564
:102EB600CF93C82F60910001646082E00E94F916EA
:102EC6008C2F0E9401168FEC97E00197F1F700C056
:062ED6000000CF910895F9
:102EDC00CF93C82F609100016B7F82E00E94F9169E
:102EEC008C2F0E9401168FEC97E00197F1F700C030
:062EFC000000CF910895D3
:102F02008093BB0084E88093BC008091BC0088233E
:102F1200E4F78091B900887F883211F081E008954A
:042F220080E00895AE
:102F2600092E0394000C11F4882352F0BB0F40F4D1
:102F3600BF2B11F460FF04C06F5F7F4F8F4F9F4F11
:022F46000895EC
:102F48006095709580959095309540955095219510
:102F58003F4F4F4F5F4F6F4F7F4F8F4F9F4F08959A
:102F6800EAE7F0E080818064808380917A0086FDC2
:0E2F7800FCCF809178009091790093700895BD
:102F86009A01462FDC01F901549147FD50815D936A
:0C2F96002F5F3F4F4F4F5111F6CF0895B1
:102FA200689401C0E8948F929F92CF93DF930E941E
:0C2FB200C310DF91CF919F908F90089585
:102FBE0081E00E946E172FEF83EC99E02150804044
:0A2FCE009040E1F700C000000895F4
:102FD8001092C00028E12093C1009093C50080930F
:0A2FE800C40086E08093C200089543
:102FF20081E8809380008CE08093810081E480935B
:0A3002007C0087E880937A000895AF
:10300C000E94B417992314F481509C4F892F8C7F04
:0A301C00982F990F990F890F08955E
:10302600992777FD05C005900D920197E1F7089560
:0A30360001900D920197E1F7089553
:10304000FC0120813181F0E16F02200D311D11243E
:08305000FC0131832083089587
:103058000024A7FD00942A17300540055005600597
:08306800700580059005089534
:10307000EC010E94C8180E94C718CE010E94C9180E
:06308000CE010E94C518FC
:1030860084E88093BC008091BC008823E4F780919B
:04309600BB000895DE
:10309A0068E571E080E00E946311009711F085E015
:0430AA0090E0089515
:1030AE00FC01480F591FE417F50711F06193FBCF90
:0230BE00089573
:1030C0009C01215631092A31310510F48F75992759
:0230D000089561
:1030D20084E98093BC008091BC0084FDFCCF0895FC
:1030E2009C01215431092A31310508F48062089586
:0E30F2009091C00095FFFCCF8093C60008951A
:0E3100008091C0008823E4F78091C6000895F6
:0E310E005058BB27AA270E94EF0E0C9493176F
:0E311C000E94D1136894B1110C94A418089568
:0E312A0000240A9416161706180609060895C2
:0E31380000240A9412161306140605060895C4
:0E314600E894BB2766277727CB0197F90895F9
:0C3154001092B90088E48093B800089540
:0C31600097F99F6780E870E060E0089538
:08316C000E941B0E0C94931746
:063174000E9455140895AD
:06317A009FEF80EC0895B8
:0631800080E090E00895DC
:043186000C940000A5
:04318A000E94880017
:02318E000895A2
:023190000895A0
:0231920008959E
:02319400000039
:02319600110125
:00000001FF
