:100000000C9460000C94050C0C94050C0C94050CDD
:100010000C94050C0C94050C0C94050C0C94050C1C
:100020000C94050C0C94050C0C94050C0C94050C0C
:100030000C94050C0C94050C0C94050C0C94050CFC
:100040000C94050C0C94050C0C94050C0C94050CEC
:100050000C94050C0C94050C0C94050C0C94050CDC
:100060000C94050C0C94050C0C94050C0C94050CCC
:100070000C94050C0C94050C0C94050C0C94050CBC
:100080000C94050C0C94050C0C94050C0C94050CAC
:100090000C94050C0C94050C0C94050C0C94050C9C
:1000A0000C94050C0C94050C0C94050C0C94050C8C
:1000B0000C94050C0100010B80010B010F001818B6
:1000C00011241FBECFEFD8E0DEBFCDBFE4EBF0E0E0
:1000D00040E017C0B591A59135912591059107FD97
:1000E0000CC095918591EF01F92FE82F05900D92A5
:1000F000A217B307D9F7FE0104C01D92A217B307D8
:10010000E1F7E03CF40731F70E940D010C94970BE6
:04011000F894FFCF91
:1001140030007B226E616D65223A2200222C227609
:10012400616C7565223A2200227D005D0A002C0074
:100134004553503A7061796C6F61643A5B002253A5
:10014400756363657373220A004553503A7265738D
:10015400746172740A004553503A636F6E6E65633E
:10016400740A004E555253452043414C4C004F4BAA
:1001740000434845434B2050524553535552450084
:10018400434845434B2054454D5000543A200020E9
:10019400503A20000A0074656D706572617475725E
:1001A400650070726573737572650032380074652A
:1001B400616D0073746174757300312E4661696CEE
:1001C40000312E53756363657373004553503A755C
:1001D400726C3A22687474703A2F2F3139322E318E
:1001E40036382E312E3235303A353030302F646186
:1001F4007461220A000A322E4661696C000A322EAA
:1002040053756363657373004553503A7472616E3A
:06021400736D69740A001D
:10021A00CF93DF93CDB7DEB7CB55D1090FB6F8949C
:10022A00DEBF0FBECDBF87E690E00E94730B0E942F
:10023A00EF0B60E086E00E948E0A60EF87E00E9482
:10024A008E0A0E9437070E9483080E94660B0E944A
:10025A0008089EAF8DAF8115904811F41EAE1DAEF1
:10026A006DE0CE01CD960E94800B0E948C0B182F58
:10027A000E947A06883351F42BE030E047E651E0D9
:10028A0060E0CE01CF960E94490A50C08332A9F499
:10029A00BE01615C7F4F80E827E631E040E00E94C2
:1002AA000F09892B51F423E030E042E751E060E086
:1002BA00CE01CF960E94490A39C08CEF810F89304E
:1002CA0050F02FE030E045E751E060E0CE01CF96F4
:1002DA000E94490A2BC08DAD9EAD9595879595953F
:1002EA00879595958795959587958297049750F068
:1002FA002BE030E044E851E060E0CE01CF960E9466
:10030A00490A14C0BE01615C7F4F80E827E631E0EC
:10031A0040E00E940F09892B49F023E030E042E7D0
:10032A0051E060E0CE01CF960E94490A812F0E94D7
:10033A001C065C0161E070E08DAD9EAD0E94B102C9
:10034A0069969FAF8EAF699724E030E04FE851E09D
:10035A0060E08E010F5F1F4FC8010E94490A69962B
:10036A008EAD9FAD6997A0E86C968DAF9EAFAFAF8B
:10037A006C97680190E8E92E8E2DB6010E94780AE2
:10038A006C964DAD5EAD6FAD6C97800F911F0E945C
:10039A004B0B8E2DB6010E94780A25E030E043E926
:1003AA0051E060E0800F911F0E94490A1501A0E800
:1003BA004A2E8E2DB6010E94780A642DA101800F63
:1003CA00911F0E944B0B8E2DB6010E94780A22E0E3
:1003DA0030E048E951E060E0800F911F0E94490A2D
:1003EA003E01EFE36E0E711CF0E88F2E8E2DB601E2
:1003FA000E94780A682DA301800F911F0E944B0B5F
:10040A008E2DB6010E946E096C962DAD3EAD4FAD94
:10041A006C976AE971E080E00E94750461969FAF6B
:10042A008EAF6197442D910166EA71E080E00E94E7
:10043A00750463969FAF8EAF63972FEA31E040E071
:10044A0062EB71E080E00E94750465969FAF8EAF03
:10045A006597482D930167EB71E080E00E9475046F
:10046A0067969FAF8EAF6797BE01615B7F4F84E04F
:10047A0090E00E94E0048C010E94AC0B892B51F0A1
:10048A0027E030E04EEB51E060E0CE0101960E9499
:10049A00490A09C02AE030E045EC51E060E0CE01AB
:1004AA0001960E94490A6FEC71E080E00E94160AE8
:1004BA00892B91F08E2DB6010E94780A28E030E04F
:1004CA0049EF51E060E0E1E0F0E0EC0FFD1F8E0F34
:1004DA009F1F0E94490A11C08E2DB6010E94780AF8
:1004EA002BE030E041E052E060E0E1E0F0E0EC0FC8
:1004FA00FD1F8E0F9F1F0E94490A8E2DB6010E9472
:10050A006E09B80180E80E94160A6CE072E080E089
:10051A000E94160AC5010E94FB0669968EAD9FAD20
:10052A0069970E94FB06C8010E94FB0600E010E0E2
:10053A000FC0F801EE0FFF1F8FE490E08C0F9D1F94
:10054A00E80FF91F808191810E94FB060F5F1F4F00
:08055A000430110574F37BCE9F
:100562004F925F926F927F928F929F92AF92BF92C1
:10057200CF92DF92EF92FF920F931F93CF93DF936D
:10058200CDB7DEB761970FB6F894DEBF0FBECDBF11
:100592005C014B0180E490E00E9408046C01BB20E6
:1005A20054F48DE2F6018083B194A194B108EE2453
:1005B200E394F12C02C0E12CF12C850115950795ED
:1005C200159507951595079515950795B501BB0CDA
:1005D200880B990B0E94C00620E030E040E85DE302
:1005E2000E94FB0B2B013C01B801012E000C880B71
:1005F200990B0E94C0069B01AC01C301B2010E948B
:10060200CC0B2B013C010115110599F42DC0C80139
:100612006AE070E00E94A20AE1E0F0E0EC0FFD1F48
:10062200E20FF31F805D8083062F172F2F5F3F4F4E
:1006320002C020E030E00115110549F7C901019718
:1006420010C0D601AE0DBF1DE1E0F0E0EC0FFD1FC2
:10065200E80FF91F20812C93019797012F5F3F4FDD
:100662007901992374F708C0F601EE0DFF1D80E3AE
:100672008083C70101967C0187010F5F1F4FF6013E
:10068200EE0DFF1D8EE28083E12CF12C2AC020E0CA
:1006920030E040E251E4C301B2010E94FB0B2B01A6
:1006A2003C0158019FEFA91AB90A0C0D1D1DC30187
:1006B200B2010E94D30B20E3260FF8012083072EFC
:1006C200000C880B990B0E94C0069B01AC01C30170
:1006D200B2010E94CC0B2B013C01FFEFEF1AFF0A83
:1006E2008501E814F9049CF2C8010196F601E00FB5
:1006F200F11F23E42083F601E80FF91F1082C601DF
:1007020061960FB6F894DEBF0FBECDBFDF91CF91D9
:100712001F910F91FF90EF90DF90CF90BF90AF901D
:0E0722009F908F907F906F905F904F90089502
:10073000EF92FF920F931F93CF93DF93609103018A
:10074000709104016115710509F45BC0FB01A0E023
:10075000B0E040E050E0C0E0D0E0008111812281B3
:1007600033810817190771F4109729F013963C93F9
:100770002E93129704C03093040120930301CF01FC
:10078000029641C08017910748F4209729F0E8802D
:10079000F9800E151F0510F4AD01EF01DF012115E1
:1007A000310511F0F901D9CF209759F10A811B8148
:1007B000FE0121913191281B390B2530310588F03C
:1007C00099838883DF01A80FB91F22503109119640
:1007D0003C932E9312960C93129713961C93139797
:1007E0008D01C617D70729F4009303011093040164
:1007F00006C0DA0112960C93129713961C93CF0140
:1008000002C080E090E0CDB7DEB7E6E00C94ED09E1
:10081000A2E0B0E0EEE0F4E00C94CF098C018BEFA5
:1008200096E00115110509F455C0892B79F00230C5
:10083000110510F402E010E0C8010E94980300972F
:1008400009F04FC092E0E92EF12C04C08BEFE82EA6
:1008500086E0F82E80910501909106012091070114
:1008600030910801821B930B6701C00ED11E8017C7
:100870009107F0F4DA82C982CE0101960E946F07D7
:10088000009719F480E090E02CC020910501309190
:1008900006018217930721F09093080180930701C6
:1008A00029813A81820F931F90930601809305015D
:1008B000E0910701F0910801CF01E114F10419F072
:1008C000029611830083CE0EDF1ED0920801C092E3
:1008D000070107C0009709F0ADCF7C0101E010E0EF
:0A08E000B9CF2296E8E00C94EB0972
:1008EA006F927F928F92CF92DF92EF92CF93DF93A4
:1008FA0000D000D00F92CDB7DEB769837A838B839D
:10090A003901842E80E490E00E9408049D838C8340
:10091A002AE030E046E151E060E00E94490A2C8179
:10092A003D81690180E8E82E8E2DB6010E94780A81
:10093A0049815A816B81EC81FD818E0F9F1F0E9434
:10094A004B0B8E2DB6010E94780A2CE030E040E273
:10095A0051E060E0EC81FD818E0F9F1F0E94490AE1
:10096A008E2DB6010E94780A682DA3012C813D8143
:10097A00820F931F0E944B0B8E2DB6010E94780A9C
:10098A0023E030E04CE251E060E0EC81FD818E0F23
:10099A009F1F0E94490A8C819D810F900F900F9092
:1009AA000F900F90DF91CF91EF90DF90CF908F90C3
:0609BA007F906F9008958C
:1009C0002F923F924F926F927F928F92AF92BF92EF
:1009D000CF92DF92EF92FF920F931F93CF93DF930B
:1009E0006C015B0188E391E00E9408047C012EE029
:1009F00030E044E351E060E00E94490AC0E0D0E00A
:100A000035C0FE01EE0FFF1FEA0DFB1D00811181B5
:100A1000370180E8882E882DB3010E94780AA8014A
:100A200060E88E0D9F1D0E944B0BC6010197C817F1
:100A3000D90749F40F2EFFE22F2EF1E03F2EF0E010
:100A40004F2EF02D08C00F2EF2E32F2EF1E03F2E97
:100A5000F0E04F2EF02D882DB3010E94780A642D0E
:100A6000A1018E0D9F1D0E944B0B2196CC15DD051B
:100A700044F2C701DF91CF911F910F91FF90EF904A
:100A8000DF90CF90BF90AF908F907F906F904F90FE
:060A90003F902F90089535
:100A96000FC00E94DA0B38F00E94E10B20F095237C
:100AA60011F00C94F50B0C94020C11240C94E90B28
:100AB6000E94CC0870F3959FC1F3950F50E0551F27
:100AC600629FF001729FBB27F00DB11D639FAA279D
:100AD600F00DB11DAA1F649F6627B00DA11D661FEC
:100AE600829F2227B00DA11D621F739FB00DA11D0D
:100AF600621F839FA00D611D221F749F3327A00DC7
:100B0600611D231F849F600D211D822F762F6A2F62
:100B160011249F5750409AF0F1F088234AF0EE0FC7
:100B2600FF1FBB1F661F771F881F91505040A9F7F4
:100B36009E3F510580F00C94F50B0C94E90B5F3F3A
:100B4600E4F3983ED4F3869577956795B795F79530
:100B5600E7959F5FC1F7FE2B880F911D96958795A8
:040B660097F908955E
:100B6A0011C00E94DA0B38F00E94E10B20F039F430
:100B7A009F3F19F426F40C94020C0EF4E095E7FB5F
:100B8A000C94F50BE92F0E94CC0858F3BA176207A8
:100B9A0073078407950720F079F4A6F50C94E80BFF
:100BAA000EF4E0950B2EBA2FA02D0B01B90190017E
:100BBA000C01CA01A0011124FF27591B99F0593FC2
:100BCA0050F4503E68F11A16F040A22F232F342F0A
:100BDA004427585FF3CF469537952795A795F04058
:100BEA005395C9F77EF41F16BA0B620B730B840B6D
:100BFA00BAF09150A1F0FF0FBB1F661F771F881F25
:100C0A00C2F70EC0BA0F621F731F841F48F487957C
:100C1A0077956795B795F7959E3F08F0B0CF93956E
:0E0C2A00880F08F09927EE0F9795879508958B
:100C3800EF92FF921F93CF93DF9300D000D00F92D3
:100C4800CDB7DEB7182F80E490E00E9408047C013D
:100C5800111123C022E030E044E151E060E00E943D
:100C6800490A38C0E1E0F0E0EC0FFD1FE20FF31F86
:100C780087E61802812D11248595859517FD8395A2
:100C8800482F440F942F990F990F940F191B105D3B
:100C98001083182F2F5F3F4F02C020E030E0111162
:100CA800E1CFC901019720E030E00EC0D701A20FC3
:100CB800B31FE1E0F0E0EC0FFD1FE80FF91F4081E2
:100CC8004C9301972F5F3F4F992384F7F701E20F69
:100CD800F31F1082C7010F900F900F900F900F9085
:0C0CE800DF91CF911F91FF90EF900895D5
:100CF4000E94A60780FD20C081FD20C082FD20C087
:100D040083FD20C084FD20C085FD20C086FD20C059
:100D140087FD20C090FD20C091FD20C092FD20C021
:100D240093FD20C094FD20C095FD20C096FD20C0F9
:100D3400992304F581E408958AE2089580E30895EF
:100D440083E2089584E4089587E3089588E3089589
:100D540089E3089583E4089584E3089585E3089579
:100D640086E3089582E4089581E3089582E3089573
:080D740083E3089580E0089577
:100D7C00E89409C097FB3EF4909580957095619529
:100D8C007F4F8F4F9F4F9923A9F0F92F96E9BB27DF
:100D9C009395F695879577956795B795F111F8CF5B
:100DAC00FAF4BB0F11F460FF1BC06F5F7F4F8F4FC6
:100DBC009F4F16C0882311F096E911C0772321F0BC
:100DCC009EE8872F762F05C0662371F096E8862F54
:100DDC0070E060E02AF09A95660F771F881FDAF7AB
:0A0DEC00880F9695879597F90895F2
:100DF6000097C9F1FC013297A0910301B09104015B
:100E0600109759F1408151819C01240F351FA2177B
:100E1600B30779F412968D919C91139793838283ED
:100E26002D913C91CA01820F931F02969183808374
:100E360016C08D919C9111979C012E5F3F4F2A0FF2
:100E46003B1FE217F30731F4840F951F02968D932B
:100E56009C930895B383A28302C013821282F093F7
:080E66000401E093030108956B
:100E6E00CF93DF932FEF83EC99E021508040904099
:100E7E00E1F700C00000C0E0D0E00DC060E382E00A
:100E8E000E948E0A0E948C0987EE93E00197F1F77B
:100E9E0000C000002196C330D10584F360E282E0E9
:100EAE000E948E0A0E948C0987EE93E00197F1F75B
:100EBE0000C0000088E20E94030B8CE00E94030B2E
:100ECE000E94590B86E00E94030BDF91CF9108958B
:100EDE00FC01408151818091090190910A01892B79
:100EEE0041F480910D0190910E0190930A0180932F
:100EFE00090180910B0190910C01009719F48DB7A7
:100F0E009EB780972091090130910A012817390761
:100F1E0048F08CE090E0909302018093010180E014
:100F2E0090E00895821B930B8417950790F3420F60
:0E0F3E00531F50930A0140930901C901089501
:100F4C00EF92FF920F931F93CF93DF9380E00E9459
:100F5C00300AE82EF12C81E00E94300A082F10E0B4
:100F6C0082E00E94300AC82FD0E083E00E94300A51
:100F7C00282F30E002951295107F1027007F102744
:100F8C000E291F299C2F8827802B912B322F22274B
:100F9C003295307F822B932BDF91CF911F910F9144
:060FAC00FF90EF90089594
:100FB2000E94D40888F09F5798F0B92F9927B7510B
:100FC200B0F0E1F0660F771F881F991F1AF0BA95EB
:100FD200C9F714C0B13091F00E94E80BB1E0089556
:100FE2000C94E80B672F782F8827B85F39F0B93F48
:100FF200CCF3869577956795B395D9F73EF490959E
:0E1002008095709561957F4F8F4F9F4F089599
:10101000CF93DF930E948308882301F18CEC0E9418
:10102000CA0A84E40E94CA0A0E944F098130E1F78B
:101030000E9483088823A9F08CEC0E94CA0A8EEBD8
:101040000E94CA0A0E94FC09C82FD0E00E94FC0935
:1010500090E0982F88278C2B9D2B05C080E090E88E
:0C10600002C080E090E8DF91CF9108957D
:10106C0094EA9093BC009091BC009923E4F7909182
:10107C00B900987F983011F0903191F78093BB00B4
:10108C0094E89093BC009091BC009923E4F7909164
:10109C00B900987F903211F0983541F494E990930F
:0E10AC00BC009091BC0094FDFCCFDACF0895FB
:1010BA0094EA9093BC009091BC009923E4F7909134
:1010CA00B900987F983011F0903191F48093BB0069
:1010DA0084E88093BC008091BC008823E4F7809167
:1010EA00B900887F883131F0803431F480E0089586
:0C10FA0081E0089580E0089581E00895F1
:101106008AB180618AB98BB18F7E8BB98FE797E000
:101116000197F1F700C000008AB18F7E8AB98BB1C2
:101126008F7E8BB9EFE8F1E03197F1F700C0000050
:1011360089B1EFEEF5E03197F1F700C00000829536
:0A1146008F7091E0892781700895F1
:101150009AB190619AB99BB19F7E9BB99AE09A959A
:10116000F1F700C080FF04C08BB180618BB903C070
:101170008BB18F7E8BB987EE90E00197F1F700C0BD
:1011800000008AB18F7E8AB98BB18F7E8BB995E0D2
:081190009A95F1F700000895A3
:1011980057FD9058440F551F59F05F3F71F0479520
:1011A800880F97FB991F61F09F3F79F08795089505
:1011B800121613061406551FF2CF4695F1DF08C024
:1011C800161617061806991FF1CF86957105610541
:0411D80008940895DA
:1011DC00EF92FF920F931F93CF93DF9380E490E0F5
:1011EC000E9408047C01C0E0D0E001C02196870178
:1011FC000C0F1D1F0E94C50BF80180838A30B1F7BC
:10120C001082C701DF91CF911F910F91FF90EF904A
:02121C00089533
:10121E00CF92DF92EF926B01E82EF6018491E7FCFC
:10122E008081F901549147FD508185130BC08823AD
:10123E0041F08FEFC81AD80AE80A2F5F3F4F4F4F81
:10124E00ECCF582F90E0851B9109EF90DF90CF9057
:02125E000895F1
:10126000A82FCB0107C0561317C00196A11D2F5FF1
:101270003F4F4F4FFC015491A7FD5081552331F052
:10128000F901649147FD60816111EDCF81E0511159
:0E12900001C080E090E0089581E090E00895B4
:10129E008AB180618AB98BB18F7E8BB98AE08A95CB
:1012AE00F1F700C08AB18F7E8AB98BB18F7E8BB970
:1012BE00E5E3EA95F1F7000089B18071E3ECF0E027
:0E12CE003197F1F700C0000082958F700895EF
:1012DC00CF92DF92EF926B01E82E0E94590B0CC05B
:1012EC008A3021F480EC0E94030B02C00E94F00AA9
:1012FC008FEFC81AD80AE80AF6018491E7FC8081BE
:0C130C008111EECFEF90DF90CF9008959C
:10131800CF9387EC90E00197F1F700C0000080E0E0
:101328000E94DD0AC82F682F686082E00E948E0A3A
:1013380087EC90E00197F1F700C000006C2F677F01
:0A13480082E00E948E0ACF91089502
:10135200CF93DF93C82F60910001D62FDF70682FE3
:10136200607F6D2B82E00E948E0A0E948C0980E1D0
:10137200C89FB00111246D2B82E00E948E0A0E9448
:081382008C09DF91CF91089561
:10138A002F923F924F925F926F927F928F929F928B
:10139A00AF92BF92CF92DF92EF92FF920F931F9379
:1013AA00CF93DF93CDB7DEB7CA1BDB0B0FB6F8942A
:0813BA00DEBF0FBECDBF099498
:1013C2002A88398848885F846E847D848C849B84D3
:1013D200AA84B984C884DF80EE80FD800C811B81E1
:1013E200AA81B981CE0FD11D0FB6F894DEBF0FBE10
:0613F200CDBFED010895DE
:1013F8001F93CF93DF93C0E0D0E010E00BC00E94B2
:101408004F0990E00C2E02C0880F991F0A94E2F74A
:10141800182B2196C830D10594F3812FDF91CF91F5
:041428001F91089573
:10142C000F931F93CF93DF930E94620A0E94EE08E2
:10143C00EC01BC0180E822E431E040E00E9430097C
:10144C008C01CE010E94FB06C801DF91CF911F9148
:04145C000F9108954F
:1014600061E070E002C0660F771F8A95E2F7609531
:101470006F7083E00E948E0A8FE891E00197F1F788
:1014800000C0000081E00E94DD0A809582958F7087
:021490000895BD
:10149200CF92DF92EF926A01E62EDC01280F391F0C
:1014A200A217B30751F0F6014491E7FC40814D9336
:1014B2004FEFC41AD40AE40AF3CFEF90DF90CF9033
:0214C20008958B
:1014C400CF92DF92EF926B01E82E06C09FEFC91A0C
:1014D400D90AE90A0E94BE0BF6018491E7FC8081D7
:0C14E4008111F4CFEF90DF90CF900895BD
:1014F000CF92DF92EF926B01E82EA82FCB01FC0177
:101500002491A7FD2081222319F00196A11DF7CF78
:0C1510008C199D09EF90DF90CF9008959A
:10151C00CF93DF93D82FC62F80E40E9436088D2FEF
:10152C000E94160B8C2F0E94160B0E94B60BC093B8
:08153C000001DF91CF91089539
:1015440097FB072E16F4009407D077FD09D00E946C
:10155400B60A07FC05D03EF4909581959F4F0895F7
:08156400709561957F4F089519
:10156C00AA1BBB1B51E107C0AA1FBB1FA617B707BD
:10157C0010F0A61BB70B881F991F5A95A9F78095D9
:08158C009095BC01CD0108950A
:101594001F93CF93DF93182FC0E0D0E005C0812FB5
:1015A4000E94A80821961695C830D105C4F3DF918E
:0615B400CF911F91089584
:1015BA00CF93C82F80E40E9436088C2F0E94160B06
:1015CA0081E40E94FF0B0E94A20BC82F0E94B60B57
:0615DA008C2FCF91089553
:1015E000CF93C82F60910001646082E00E948E0A50
:1015F0008C2F0E94A9098FEC97E00197F1F700C0AA
:061600000000CF910895E7
:10160600CF93C82F609100016B7F82E00E948E0A03
:101616008C2F0E94A9098FEC97E00197F1F700C083
:061626000000CF910895C1
:10162C008093BB0084E88093BC008091BC0088232D
:10163C00E4F78091B900887F883211F081E0089539
:04164C0080E008959D
:10165000EAE7F0E080818064808380917A0086FDF3
:10166000FCCF909179002FEF30E0A901491B51097F
:04167000CA0108950E
:10167400092E0394000C11F4882352F0BB0F40F49C
:10168400BF2B11F460FF04C06F5F7F4F8F4F9F4FDC
:021694000895B7
:101696009A01462FDC01F901549147FD50815D9373
:0C16A6002F5F3F4F4F4F5111F6CF0895BA
:1016B20081E00E94030B2FEF83EC99E021508040E0
:0A16C2009040E1F700C00000089519
:1016CC0081E8809380008CE08093810080E6809399
:0A16DC007C0087E880937A000895EF
:1016E6001092C00028E12093C1009093C50080931A
:0A16F600C40086E08093C20008954E
:10170000FC0120813181F0E16F02200D311D112497
:08171000FC01318320830895E0
:101718000E94280B24E1AC01249FC001259F900D55
:061728001124892F089531
:10172E00EC010E940A0C0E94090CCE010E940B0CC7
:06173E00CE010E94070C21
:1017440084E88093BC008091BC008823E4F78091F6
:04175400BB00089539
:101758006AE571E080E00E94160A009711F085E0C2
:0417680090E0089570
:10176C0084E98093BC008091BC0084FDFCCF08957B
:0E177C009091C00095FFFCCF8093C6000895A9
:0E178A008091C0008823E4F78091C600089586
:0E1798005058BB27AA270E94B5050C943A0BA7
:0E17A6000E94D9076894B1110C94E90B0895C4
:0E17B40000240A941616170618060906089552
:0E17C20000240A941216130614060506089554
:0E17D000E894BB2766277727CB0197F9089589
:0C17DE001092B90088E48093B8000895D0
:0C17EA0097F99F6780E870E060E00895C8
:0817F6000E944B050C943A0B14
:0617FE000E945D08089541
:061804009FEF80EC089547
:04180A000C9400003A
:04180E000E948800AC
:02181200089537
:02181400089535
:02181600089533
:021818000000CE
:02181A000F01BC
:00000001FF
