:100000000C945D000C9446020C9446020C9446023B
:100010000C9446020C9446020C9446020C94460240
:100020000C9446020C9446020C9446020C94460230
:100030000C9446020C9446020C9446020C94460220
:100040000C9446020C9446020C9446020C94460210
:100050000C9446020C9446020C9446020C94460200
:100060000C9446020C9446020C9446020C944602F0
:100070000C9446020C9446020C9446020C944602E0
:100080000C9446020C9446020C9446020C944602D0
:100090000C9446020C9446020C9446020C944602C0
:1000A0000C9446020C9446020C9446020C944602B0
:1000B0000C94460201000103800011241FBECFEF03
:1000C000D8E0DEBFCDBFE4EBF0E040E017C0B59173
:1000D000A59135912591059107FD0CC095918591CC
:1000E000EF01F92FE82F05900D92A217B307D9F76A
:1000F000FE0104C01D92A217B307E1F7E93BF40724
:0E01000031F70E9415020C942002F894FFCFF4
:10010E000E94720180FD20C081FD20C082FD20C0B2
:10011E0083FD20C084FD20C085FD20C086FD20C04B
:10012E0087FD20C090FD20C091FD20C092FD20C013
:10013E0093FD20C094FD20C095FD20C096FD20C0EB
:10014E00992304F581E408958AE2089580E30895E1
:10015E0083E2089584E4089587E3089588E308957B
:10016E0089E3089583E4089584E3089585E308956B
:10017E0086E3089582E4089581E3089582E3089565
:08018E0083E3089580E0089569
:10019600EF92FF920F931F93CF93DF9380E00E941D
:1001A600AD01E82EF12C81E00E94AD01082F10E090
:1001B60082E00E94AD01C82FD0E083E00E94AD012D
:1001C600282F30E002951295107F1027007F102708
:1001D6000E291F299C2F8827802B912B322F22270F
:1001E6003295307F822B932BDF91CF911F910F9108
:0601F600FF90EF90089558
:1001FC0094EA9093BC009091BC009923E4F7909101
:10020C00B900987F983011F0903191F78093BB0032
:10021C0094E89093BC009091BC009923E4F79091E2
:10022C00B900987F903211F0983541F494E990938D
:0E023C00BC009091BC0094FDFCCFDACF089579
:10024A00CF932FEF80E792E0215080409040E1F772
:10025A0000C000000E948700C82F882391F32FEF67
:10026A0080E792E0215080409040E1F700C0000012
:10027A000E948700882399F3C23329F4883319F43A
:0E028A000E94C60102C00E949001CF9108950B
:1002980094EA9093BC009091BC009923E4F7909164
:1002A800B900987F983011F0903191F48093BB0099
:1002B80084E88093BC008091BC008823E4F7809197
:1002C800B900887F883131F0803431F480E00895B6
:0C02D80081E0089580E0089581E0089521
:1002E400CF93DF930E94CB00EC018FE59AEE019748
:1002F400F1F700C000000E94CB008C239D232091C5
:100304000101309102012095309590930201809370
:0C031400010182239323DF91CF91089513
:1003200080E090E016C02FE325B92FEF39E648E1D1
:10033000215030404040E1F700C0000015B82FEFD9
:1003400039E648E1215030404040E1F700C000006C
:0A0350000196853091053CF30895F5
:10035A0061E070E002C0660F771F8A95E2F7609548
:10036A006F7083E00E94DC018FE891E00197F1F75A
:10037A0000C0000081E00E94F001809582958F7094
:02038A000895D4
:10038C008FE385B92FEF8BE792E9215080409040A5
:10039C00E1F700C0000015B82FEF87EA91E6215075
:0C03AC0080409040E1F700C00000089580
:1003B800CF93DF93D82FC62F80E40E94FE008D2FA5
:1003C8000E9403028C2F0E9403020E943502C093F0
:0803D8000001DF91CF910895AF
:1003E000CF93C82F80E40E94FE008C2F0E9403024E
:1003F00081E40E9443020E942B02C82F0E94350212
:060400008C2FCF9108953E
:100406008093BB0084E88093BC008091BC00882365
:10041600E4F78091B900887F883211F081E0089571
:0404260080E00895D5
:10042A008FEF84B90E943D0260EF87E00E94DC01F1
:06043A000E942501FDCF28
:10044000EC010E944B020E944A02CE010E944C0223
:06045000CE010E944802EB
:1004560084E88093BC008091BC008823E4F78091F7
:04046600BB0008953A
:10046A0084E98093BC008091BC0084FDFCCF089590
:0C047A001092B90088E48093B800089547
:060486000E944C010895E4
:04048C000C940000CC
:040490000E94850041
:020494000895C9
:020496000895C7
:020498000895C5
:00000001FF
