:100000000C945D000C9449020C9449020C94490232
:100010000C9449020C9449020C9449020C94490234
:100020000C9449020C9449020C9449020C94490224
:100030000C9449020C9449020C9449020C94490214
:100040000C9449020C9449020C9449020C94490204
:100050000C9449020C9449020C9449020C944902F4
:100060000C9449020C9449020C9449020C944902E4
:100070000C9449020C9449020C9449020C944902D4
:100080000C9449020C9449020C9449020C944902C4
:100090000C9449020C9449020C9449020C944902B4
:1000A0000C9449020C9449020C9449020C944902A4
:1000B0000C94490201000103800011241FBECFEF00
:1000C000D8E0DEBFCDBFE4EBF0E040E017C0B59173
:1000D000A59135912591059107FD0CC095918591CC
:1000E000EF01F92FE82F05900D92A217B307D9F76A
:1000F000FE0104C01D92A217B307E1F7E93BF40724
:0E01000031F70E940E020C941902F894FFCF02
:10010E000E94740180FD20C081FD20C082FD20C0B0
:10011E0083FD20C084FD20C085FD20C086FD20C04B
:10012E0087FD20C090FD20C091FD20C092FD20C013
:10013E0093FD20C094FD20C095FD20C096FD20C0EB
:10014E00992304F581E408958AE2089580E30895E1
:10015E0083E2089584E4089587E3089588E308957B
:10016E0089E3089583E4089584E3089585E308956B
:10017E0086E3089582E4089581E3089582E3089565
:08018E0083E3089580E0089569
:10019600EF92FF920F931F93CF93DF9380E00E941D
:1001A600AF01E82EF12C81E00E94AF01082F10E08C
:1001B60082E00E94AF01C82FD0E083E00E94AF0129
:1001C600282F30E002951295107F1027007F102708
:1001D6000E291F299C2F8827802B912B322F22270F
:1001E6003295307F822B932BDF91CF911F910F9108
:0601F600FF90EF90089558
:1001FC00CF932FEF80E792E0215080409040E1F7C1
:10020C0000C000000E948700C82F882391F32FEFB5
:10021C0080E792E0215080409040E1F700C0000060
:10022C000E948700882399F3C23329F4883319F488
:10023C000E94010202C00E9492010E942E02CF91E4
:02024C00089513
:10024E0094EA9093BC009091BC009923E4F79091AE
:10025E00B900987F983011F0903191F78093BB00E0
:10026E0094E89093BC009091BC009923E4F7909190
:10027E00B900987F903211F0983541F494E990933B
:0E028E00BC009091BC0094FDFCCFDACF089527
:10029C0094EA9093BC009091BC009923E4F7909160
:1002AC00B900987F983011F0903191F48093BB0095
:1002BC0084E88093BC008091BC008823E4F7809193
:1002CC00B900887F883131F0803431F480E00895B2
:0C02DC0081E0089580E0089581E008951D
:1002E800CF93DF930E94CB00EC018FE59AEE019744
:1002F800F1F700C000000E94CB008C239D232091C1
:10030800010130910201209530959093020180936C
:0C031800010182239323DF91CF9108950F
:1003240080E090E016C02FE325B92FEF39E648E1CD
:10033400215030404040E1F700C0000015B82FEFD5
:1003440039E648E1215030404040E1F700C0000068
:0A0354000196853091053CF30895F1
:10035E0061E070E002C0660F771F8A95E2F7609544
:10036E006F7083E00E94C8018FE891E00197F1F76A
:10037E0000C0000081E00E94DC01809582958F70A4
:02038E000895D0
:10039000CF93DF93D82FC62F80E40E9427018D2FA3
:1003A0000E94EF018C2F0E94EF010E943802C0933F
:0803B0000001DF91CF910895D7
:1003B800CF93C82F80E40E9427018C2F0E94EF0161
:1003C80081E40E9446020E942402C82F0E9438023B
:0603D8008C2FCF91089567
:1003DE008093BB0084E88093BC008091BC0088238E
:1003EE00E4F78091B900887F883211F081E008959A
:0403FE0080E00895FE
:100402008FE385B92FEF8BE792E92150804090402E
:0A041200E1F700C0000015B80895DE
:10041C008FEF84B90E94400260EF87E00E94C80110
:06042C000E94FE00FDCF5E
:10043200EC010E944E020E944D02CE010E944F0228
:06044200CE010E944B02F6
:1004480084E88093BC008091BC008823E4F7809105
:04045800BB00089548
:10045C002FEF83E294EF215080409040E1F700C0F1
:04046C0000000895EF
:1004700084E98093BC008091BC0084FDFCCF08958A
:0C0480001092B90088E48093B800089541
:06048C000E944E010895DC
:040492000C940000C6
:040496000E9485003B
:02049A000895C3
:02049C000895C1
:02049E000895BF
:00000001FF
