:100000000C945D000C9400020C9400020C9400020D
:100010000C9400020C9400020C9400020C94000258
:100020000C9400020C9400020C9400020C94000248
:100030000C9400020C9400020C9400020C94000238
:100040000C9400020C9400020C9400020C94000228
:100050000C9400020C9400020C9400020C94000218
:100060000C9400020C9400020C9400020C94000208
:100070000C9400020C9400020C9400020C940002F8
:100080000C9400020C9400020C9400020C940002E8
:100090000C9400020C9400020C9400020C940002D8
:1000A0000C9400020C9400020C9400020C940002C8
:1000B0000C94000201000101800011241FBECFEF4B
:1000C000D8E0DEBFCDBFE4EBF0E040E017C0B59173
:1000D000A59135912591059107FD0CC095918591CC
:1000E000EF01F92FE82F05900D92A217B307D9F76A
:1000F000FE0104C01D92A217B307E1F7E93BF40724
:0E01000031F70E94A1010C94DA01F894FFCFB0
:10010E00CF93DF930E94DA00EC018FE59AEE019710
:10011E00F1F700C000000E94DA008C239D2380FDC1
:10012E0020C081FD20C082FD20C083FD20C084FD43
:10013E0020C085FD20C086FD20C087FD20C090FD1B
:10014E0020C091FD20C092FD20C093FD20C094FDE3
:10015E0020C095FD20C096FD20C0992304F581E4B2
:10016E001FC08AE21DC080E31BC083E219C084E475
:10017E0017C087E315C088E313C089E311C083E479
:10018E000FC084E30DC085E30BC086E309C082E493
:10019E0007C081E305C082E303C083E301C080E0B2
:0601AE00DF91CF910895DE
:1001B400EF92FF920F931F93CF93DF9380E00E94FF
:1001C4007401E82EF12C81E00E947401082F10E0E4
:1001D40082E00E947401C82FD0E083E00E94740181
:1001E400282F30E002951295107F1027007F1027EA
:1001F4000E291F299C2F8827802B912B322F2227F1
:100204003295307F822B932BDF91CF911F910F91E9
:06021400FF90EF90089539
:10021A0094EA9093BC009091BC009923E4F79091E2
:10022A00B900987F983011F0903191F78093BB0014
:10023A0094E89093BC009091BC009923E4F79091C4
:10024A00B900987F903211F0983541F494E990936F
:0E025A00BC009091BC0094FDFCCFDACF08955B
:1002680094EA9093BC009091BC009923E4F7909194
:10027800B900987F983011F0903191F48093BB00C9
:1002880084E88093BC008091BC008823E4F78091C7
:10029800B900887F883131F0803431F480E00895E6
:0C02A80081E0089580E0089581E0089551
:1002B4000E948700863371F018F48A3271F010C0FE
:1002C400883329F0813461F481E085B9089582E0AE
:1002D40085B9089584E085B9089588E085B90895BD
:0402E40015B80895AC
:1002E80061E070E002C0660F771F8A95E2F76095BB
:1002F8006F7083E00E948D018FE891E00197F1F71C
:1003080000C0000081E00E94B501809582958F7041
:02031800089546
:10031A00CF93DF93D82FC62F80E40E940D018D2F33
:10032A000E94C8018C2F0E94C8010E94EF01C0934D
:08033A000001DF91CF9108954D
:100342008FEF84B90E94F70160EF87E00E948D0170
:100352002FEF80E792E0215080409040E1F700C00B
:0803620000000E945A01F4CFD3
:10036A00CF93C82F80E40E940D018C2F0E94C801F0
:10037A0081E40E94FD010E94E501C82F0E94EF015D
:06038A008C2FCF910895B5
:100390008093BB0084E88093BC008091BC008823DC
:1003A000E4F78091B900887F883211F081E00895E8
:0403B00080E008954C
:1003B400EC010E9405020E940402CE010E94060282
:0603C400CE010E940202BE
:1003CA0084E88093BC008091BC008823E4F7809184
:0403DA00BB000895C7
:1003DE0084E98093BC008091BC0084FDFCCF08951D
:0C03EE001092B90088E48093B8000895D4
:0603FA000E943401089589
:040400000C94000058
:040404000E948500CD
:02040800089555
:02040A00089553
:02040C00089551
:00000001FF
