:100000000C945D000C940D020C940D020C940D02E6
:100010000C940D020C940D020C940D020C940D0224
:100020000C940D020C940D020C940D020C940D0214
:100030000C940D020C940D020C940D020C940D0204
:100040000C940D020C940D020C940D020C940D02F4
:100050000C940D020C940D020C940D020C940D02E4
:100060000C940D020C940D020C940D020C940D02D4
:100070000C940D020C940D020C940D020C940D02C4
:100080000C940D020C940D020C940D020C940D02B4
:100090000C940D020C940D020C940D020C940D02A4
:1000A0000C940D020C940D020C940D020C940D0294
:1000B0000C940D0201000103800011241FBECFEF3C
:1000C000D8E0DEBFCDBFE4EBF0E040E017C0B59173
:1000D000A59135912591059107FD0CC095918591CC
:1000E000EF01F92FE82F05900D92A217B307D9F76A
:1000F000FE0104C01D92A217B307E1F7E93BF40724
:0E01000031F70E94AE010C94E701F894FFCF96
:10010E000E944B0180FD20C081FD20C082FD20C0D9
:10011E0083FD20C084FD20C085FD20C086FD20C04B
:10012E0087FD20C090FD20C091FD20C092FD20C013
:10013E0093FD20C094FD20C095FD20C096FD20C0EB
:10014E00992304F581E408958AE2089580E30895E1
:10015E0083E2089584E4089587E3089588E308957B
:10016E0089E3089583E4089584E3089585E308956B
:10017E0086E3089582E4089581E3089582E3089565
:08018E0083E3089580E0089569
:10019600EF92FF920F931F93CF93DF9380E00E941D
:1001A6006901E82EF12C81E00E946901082F10E018
:1001B60082E00E946901C82FD0E083E00E946901B5
:1001C600282F30E002951295107F1027007F102708
:1001D6000E291F299C2F8827802B912B322F22270F
:1001E6003295307F822B932BDF91CF911F910F9108
:0601F600FF90EF90089558
:1001FC0094EA9093BC009091BC009923E4F7909101
:10020C00B900987F983011F0903191F78093BB0032
:10021C0094E89093BC009091BC009923E4F79091E2
:10022C00B900987F903211F0983541F494E990938D
:0E023C00BC009091BC0094FDFCCFDACF089579
:10024A0094EA9093BC009091BC009923E4F79091B2
:10025A00B900987F983011F0903191F48093BB00E7
:10026A0084E88093BC008091BC008823E4F78091E5
:10027A00B900887F883131F0803431F480E0089504
:0C028A0081E0089580E0089581E008956F
:10029600CF93DF930E94CB00EC018FE59AEE019796
:1002A600F1F700C000000E94CB008C239D23209113
:1002B60001013091020120953095909302018093BF
:0C02C600010182239323DF91CF91089562
:1002D20061E070E002C0660F771F8A95E2F76095D1
:1002E2006F7083E00E949A018FE891E00197F1F725
:1002F20000C0000081E00E94C201809582958F704B
:0203020008955C
:100304000E948700863371F018F48A3271F00895E0
:10031400883329F0813459F481E085B9089582E065
:1003240085B9089584E085B9089588E085B908956C
:10033400CF93DF93D82FC62F80E40E94FE008D2F29
:100344000E94D5018C2F0E94D5010E94FC01C0930C
:080354000001DF91CF91089533
:10035C008FEF84B90E94040260EF87E00E949A013B
:10036C002FEF80E792E0215080409040E1F700C0F1
:08037C0000000E948201F4CF91
:10038400CF93C82F80E40E94FE008C2F0E94D501D9
:1003940081E40E940A020E94F201C82F0E94FC011B
:0603A4008C2FCF9108959B
:1003AA008093BB0084E88093BC008091BC008823C2
:1003BA00E4F78091B900887F883211F081E00895CE
:0403CA0080E0089532
:1003CE00EC010E9412020E941102CE010E94130241
:0603DE00CE010E940F0297
:1003E40084E88093BC008091BC008823E4F780916A
:0403F400BB000895AD
:1003F80084E98093BC008091BC0084FDFCCF089503
:0C0408001092B90088E48093B8000895B9
:060414000E94250108957D
:04041A000C9400003E
:04041E000E948500B3
:0204220008953B
:02042400089539
:02042600089537
:00000001FF
