:020000020000FC
:0200000013C02B
:1000080000C0AF93AFB7AF93C2E084EF91E0AF9178
:10001800AFBFAF911895AFE9BFE01197F1F7089519
:10002800ACE0A0936900A2E0ADBB7894AFEFADBFA0
:10003800A8E0AEBFAFEFA4B9AA27AAB9CC2784E934
:1000480091E17894C13049F020F0AFEFA5B90C9454
:100058003500AA27A5B90C943500A1E0A5B90C94E0
:100068003500D9DF019769F7CA950AF4C0E0F8941A
:0E007800C23039F384E991E178940C942500AC
:00000001FF
